{
	"contracts/SimpleCounter.sol": {
		"CommunityCounter": {
			"abi": [
				{
					"inputs": [
						{
							"internalType": "uint256",
							"name": "announcement_id",
							"type": "uint256"
						}
					],
					"name": "incrementCounter",
					"outputs": [],
					"stateMutability": "nonpayable",
					"type": "function"
				},
				{
					"inputs": [
						{
							"internalType": "uint256",
							"name": "announcement_id",
							"type": "uint256"
						}
					],
					"name": "viewCounter",
					"outputs": [
						{
							"internalType": "uint256",
							"name": "",
							"type": "uint256"
						}
					],
					"stateMutability": "view",
					"type": "function"
				}
			],
			"devdoc": {
				"kind": "dev",
				"methods": {},
				"version": 1
			},
			"evm": {
				"assembly": "    /* \"contracts/SimpleCounter.sol\":58:1390  contract CommunityCounter {... */\n  mstore(0x40, 0x80)\n  callvalue\n  dup1\n  iszero\n  tag_1\n  jumpi\n  0x00\n  dup1\n  revert\ntag_1:\n  pop\n  dataSize(sub_0)\n  dup1\n  dataOffset(sub_0)\n  0x00\n  codecopy\n  0x00\n  return\nstop\n\nsub_0: assembly {\n        /* \"contracts/SimpleCounter.sol\":58:1390  contract CommunityCounter {... */\n      mstore(0x40, 0x80)\n      callvalue\n      dup1\n      iszero\n      tag_1\n      jumpi\n      0x00\n      dup1\n      revert\n    tag_1:\n      pop\n      jumpi(tag_2, lt(calldatasize, 0x04))\n      shr(0xe0, calldataload(0x00))\n      dup1\n      0x11595c1b\n      eq\n      tag_3\n      jumpi\n      dup1\n      0x6abbb3b4\n      eq\n      tag_4\n      jumpi\n    tag_2:\n      0x00\n      dup1\n      revert\n        /* \"contracts/SimpleCounter.sol\":1262:1387  function viewCounter(uint256 announcement_id) public view returns(uint256) {... */\n    tag_3:\n      tag_5\n      0x04\n      dup1\n      calldatasize\n      sub\n      dup2\n      add\n      swap1\n      tag_6\n      swap2\n      swap1\n      tag_7\n      jump\t// in\n    tag_6:\n      tag_8\n      jump\t// in\n    tag_5:\n      mload(0x40)\n      tag_9\n      swap2\n      swap1\n      tag_10\n      jump\t// in\n    tag_9:\n      mload(0x40)\n      dup1\n      swap2\n      sub\n      swap1\n      return\n        /* \"contracts/SimpleCounter.sol\":498:1256  function incrementCounter(uint announcement_id) public {... */\n    tag_4:\n      tag_11\n      0x04\n      dup1\n      calldatasize\n      sub\n      dup2\n      add\n      swap1\n      tag_12\n      swap2\n      swap1\n      tag_7\n      jump\t// in\n    tag_12:\n      tag_13\n      jump\t// in\n    tag_11:\n      stop\n        /* \"contracts/SimpleCounter.sol\":1262:1387  function viewCounter(uint256 announcement_id) public view returns(uint256) {... */\n    tag_8:\n        /* \"contracts/SimpleCounter.sol\":1328:1335  uint256 */\n      0x00\n        /* \"contracts/SimpleCounter.sol\":1354:1363  IDtoCount */\n      dup1\n        /* \"contracts/SimpleCounter.sol\":1354:1380  IDtoCount[announcement_id] */\n      0x00\n        /* \"contracts/SimpleCounter.sol\":1364:1379  announcement_id */\n      dup4\n        /* \"contracts/SimpleCounter.sol\":1354:1380  IDtoCount[announcement_id] */\n      dup2\n      mstore\n      0x20\n      add\n      swap1\n      dup2\n      mstore\n      0x20\n      add\n      0x00\n      keccak256\n      sload\n        /* \"contracts/SimpleCounter.sol\":1347:1380  return IDtoCount[announcement_id] */\n      swap1\n      pop\n        /* \"contracts/SimpleCounter.sol\":1262:1387  function viewCounter(uint256 announcement_id) public view returns(uint256) {... */\n      swap2\n      swap1\n      pop\n      jump\t// out\n        /* \"contracts/SimpleCounter.sol\":498:1256  function incrementCounter(uint announcement_id) public {... */\n    tag_13:\n        /* \"contracts/SimpleCounter.sol\":589:590  0 */\n      0x00\n        /* \"contracts/SimpleCounter.sol\":566:578  Announcement */\n      0x01\n        /* \"contracts/SimpleCounter.sol\":566:585  Announcement.length */\n      dup1\n      sload\n      swap1\n      pop\n        /* \"contracts/SimpleCounter.sol\":566:590  Announcement.length == 0 */\n      sub\n        /* \"contracts/SimpleCounter.sol\":563:1250  if(Announcement.length == 0){... */\n      tag_16\n      jumpi\n        /* \"contracts/SimpleCounter.sol\":605:615  uint count */\n      0x00\n        /* \"contracts/SimpleCounter.sol\":618:619  1 */\n      0x01\n        /* \"contracts/SimpleCounter.sol\":605:619  uint count = 1 */\n      swap1\n      pop\n        /* \"contracts/SimpleCounter.sol\":633:663  Counter memory newAnnouncement */\n      0x00\n        /* \"contracts/SimpleCounter.sol\":666:697  Counter(announcement_id, count) */\n      mload(0x40)\n      dup1\n      0x40\n      add\n      0x40\n      mstore\n      dup1\n        /* \"contracts/SimpleCounter.sol\":674:689  announcement_id */\n      dup5\n        /* \"contracts/SimpleCounter.sol\":666:697  Counter(announcement_id, count) */\n      dup2\n      mstore\n      0x20\n      add\n        /* \"contracts/SimpleCounter.sol\":691:696  count */\n      dup4\n        /* \"contracts/SimpleCounter.sol\":666:697  Counter(announcement_id, count) */\n      dup2\n      mstore\n      pop\n        /* \"contracts/SimpleCounter.sol\":633:697  Counter memory newAnnouncement = Counter(announcement_id, count) */\n      swap1\n      pop\n        /* \"contracts/SimpleCounter.sol\":711:723  Announcement */\n      0x01\n        /* \"contracts/SimpleCounter.sol\":729:744  newAnnouncement */\n      dup2\n        /* \"contracts/SimpleCounter.sol\":711:745  Announcement.push(newAnnouncement) */\n      swap1\n      dup1\n      0x01\n      dup2\n      sload\n      add\n      dup1\n      dup3\n      sstore\n      dup1\n      swap2\n      pop\n      pop\n      0x01\n      swap1\n      sub\n      swap1\n      0x00\n      mstore\n      keccak256(0x00, 0x20)\n      swap1\n      0x02\n      mul\n      add\n      0x00\n      swap1\n      swap2\n      swap1\n      swap2\n      swap1\n      swap2\n      pop\n      0x00\n      dup3\n      add\n      mload\n      dup2\n      0x00\n      add\n      sstore\n      0x20\n      dup3\n      add\n      mload\n      dup2\n      0x01\n      add\n      sstore\n      pop\n      pop\n        /* \"contracts/SimpleCounter.sol\":788:793  count */\n      dup2\n        /* \"contracts/SimpleCounter.sol\":759:768  IDtoCount */\n      0x00\n        /* \"contracts/SimpleCounter.sol\":759:785  IDtoCount[announcement_id] */\n      dup1\n        /* \"contracts/SimpleCounter.sol\":769:784  announcement_id */\n      dup6\n        /* \"contracts/SimpleCounter.sol\":759:785  IDtoCount[announcement_id] */\n      dup2\n      mstore\n      0x20\n      add\n      swap1\n      dup2\n      mstore\n      0x20\n      add\n      0x00\n      keccak256\n        /* \"contracts/SimpleCounter.sol\":759:793  IDtoCount[announcement_id] = count */\n      dup2\n      swap1\n      sstore\n      pop\n        /* \"contracts/SimpleCounter.sol\":591:804  {... */\n      pop\n      pop\n        /* \"contracts/SimpleCounter.sol\":563:1250  if(Announcement.length == 0){... */\n      jump(tag_18)\n    tag_16:\n        /* \"contracts/SimpleCounter.sol\":819:829  bool check */\n      0x00\n        /* \"contracts/SimpleCounter.sol\":830:840  uint index */\n      dup1\n        /* \"contracts/SimpleCounter.sol\":844:874  CheckIfUnique(announcement_id) */\n      tag_19\n        /* \"contracts/SimpleCounter.sol\":858:873  announcement_id */\n      dup4\n        /* \"contracts/SimpleCounter.sol\":844:857  CheckIfUnique */\n      tag_20\n        /* \"contracts/SimpleCounter.sol\":844:874  CheckIfUnique(announcement_id) */\n      jump\t// in\n    tag_19:\n        /* \"contracts/SimpleCounter.sol\":818:874  (bool check,uint index) = CheckIfUnique(announcement_id) */\n      swap2\n      pop\n      swap2\n      pop\n        /* \"contracts/SimpleCounter.sol\":897:901  true */\n      0x01\n        /* \"contracts/SimpleCounter.sol\":888:901  check == true */\n      iszero\n      iszero\n        /* \"contracts/SimpleCounter.sol\":888:893  check */\n      dup3\n        /* \"contracts/SimpleCounter.sol\":888:901  check == true */\n      iszero\n      iszero\n      sub\n        /* \"contracts/SimpleCounter.sol\":884:1240  if (check == true){... */\n      tag_21\n      jumpi\n        /* \"contracts/SimpleCounter.sol\":916:928  Announcement */\n      0x01\n        /* \"contracts/SimpleCounter.sol\":929:934  index */\n      dup2\n        /* \"contracts/SimpleCounter.sol\":916:935  Announcement[index] */\n      dup2\n      sload\n      dup2\n      lt\n      tag_22\n      jumpi\n      tag_23\n      tag_24\n      jump\t// in\n    tag_23:\n    tag_22:\n      swap1\n      0x00\n      mstore\n      keccak256(0x00, 0x20)\n      swap1\n      0x02\n      mul\n      add\n        /* \"contracts/SimpleCounter.sol\":916:941  Announcement[index].count */\n      0x01\n      add\n      0x00\n        /* \"contracts/SimpleCounter.sol\":916:943  Announcement[index].count++ */\n      dup2\n      sload\n      dup1\n      swap3\n      swap2\n      swap1\n      tag_26\n      swap1\n      tag_27\n      jump\t// in\n    tag_26:\n      swap2\n      swap1\n      pop\n      sstore\n      pop\n        /* \"contracts/SimpleCounter.sol\":986:998  Announcement */\n      0x01\n        /* \"contracts/SimpleCounter.sol\":999:1004  index */\n      dup2\n        /* \"contracts/SimpleCounter.sol\":986:1005  Announcement[index] */\n      dup2\n      sload\n      dup2\n      lt\n      tag_28\n      jumpi\n      tag_29\n      tag_24\n      jump\t// in\n    tag_29:\n    tag_28:\n      swap1\n      0x00\n      mstore\n      keccak256(0x00, 0x20)\n      swap1\n      0x02\n      mul\n      add\n        /* \"contracts/SimpleCounter.sol\":986:1011  Announcement[index].count */\n      0x01\n      add\n      sload\n        /* \"contracts/SimpleCounter.sol\":957:966  IDtoCount */\n      0x00\n        /* \"contracts/SimpleCounter.sol\":957:983  IDtoCount[announcement_id] */\n      dup1\n        /* \"contracts/SimpleCounter.sol\":967:982  announcement_id */\n      dup6\n        /* \"contracts/SimpleCounter.sol\":957:983  IDtoCount[announcement_id] */\n      dup2\n      mstore\n      0x20\n      add\n      swap1\n      dup2\n      mstore\n      0x20\n      add\n      0x00\n      keccak256\n        /* \"contracts/SimpleCounter.sol\":957:1011  IDtoCount[announcement_id] = Announcement[index].count */\n      dup2\n      swap1\n      sstore\n      pop\n        /* \"contracts/SimpleCounter.sol\":884:1240  if (check == true){... */\n      jump(tag_31)\n    tag_21:\n        /* \"contracts/SimpleCounter.sol\":1036:1066  Counter memory newAnnouncement */\n      0x00\n        /* \"contracts/SimpleCounter.sol\":1069:1120  Counter(announcement_id, Announcement[index].count) */\n      mload(0x40)\n      dup1\n      0x40\n      add\n      0x40\n      mstore\n      dup1\n        /* \"contracts/SimpleCounter.sol\":1077:1092  announcement_id */\n      dup6\n        /* \"contracts/SimpleCounter.sol\":1069:1120  Counter(announcement_id, Announcement[index].count) */\n      dup2\n      mstore\n      0x20\n      add\n        /* \"contracts/SimpleCounter.sol\":1094:1106  Announcement */\n      0x01\n        /* \"contracts/SimpleCounter.sol\":1107:1112  index */\n      dup5\n        /* \"contracts/SimpleCounter.sol\":1094:1113  Announcement[index] */\n      dup2\n      sload\n      dup2\n      lt\n      tag_32\n      jumpi\n      tag_33\n      tag_24\n      jump\t// in\n    tag_33:\n    tag_32:\n      swap1\n      0x00\n      mstore\n      keccak256(0x00, 0x20)\n      swap1\n      0x02\n      mul\n      add\n        /* \"contracts/SimpleCounter.sol\":1094:1119  Announcement[index].count */\n      0x01\n      add\n      sload\n        /* \"contracts/SimpleCounter.sol\":1069:1120  Counter(announcement_id, Announcement[index].count) */\n      dup2\n      mstore\n      pop\n        /* \"contracts/SimpleCounter.sol\":1036:1120  Counter memory newAnnouncement = Counter(announcement_id, Announcement[index].count) */\n      swap1\n      pop\n        /* \"contracts/SimpleCounter.sol\":1130:1142  Announcement */\n      0x01\n        /* \"contracts/SimpleCounter.sol\":1148:1163  newAnnouncement */\n      dup2\n        /* \"contracts/SimpleCounter.sol\":1130:1164  Announcement.push(newAnnouncement) */\n      swap1\n      dup1\n      0x01\n      dup2\n      sload\n      add\n      dup1\n      dup3\n      sstore\n      dup1\n      swap2\n      pop\n      pop\n      0x01\n      swap1\n      sub\n      swap1\n      0x00\n      mstore\n      keccak256(0x00, 0x20)\n      swap1\n      0x02\n      mul\n      add\n      0x00\n      swap1\n      swap2\n      swap1\n      swap2\n      swap1\n      swap2\n      pop\n      0x00\n      dup3\n      add\n      mload\n      dup2\n      0x00\n      add\n      sstore\n      0x20\n      dup3\n      add\n      mload\n      dup2\n      0x01\n      add\n      sstore\n      pop\n      pop\n        /* \"contracts/SimpleCounter.sol\":1203:1215  Announcement */\n      0x01\n        /* \"contracts/SimpleCounter.sol\":1216:1221  index */\n      dup3\n        /* \"contracts/SimpleCounter.sol\":1203:1222  Announcement[index] */\n      dup2\n      sload\n      dup2\n      lt\n      tag_36\n      jumpi\n      tag_37\n      tag_24\n      jump\t// in\n    tag_37:\n    tag_36:\n      swap1\n      0x00\n      mstore\n      keccak256(0x00, 0x20)\n      swap1\n      0x02\n      mul\n      add\n        /* \"contracts/SimpleCounter.sol\":1203:1228  Announcement[index].count */\n      0x01\n      add\n      sload\n        /* \"contracts/SimpleCounter.sol\":1174:1183  IDtoCount */\n      0x00\n        /* \"contracts/SimpleCounter.sol\":1174:1200  IDtoCount[announcement_id] */\n      dup1\n        /* \"contracts/SimpleCounter.sol\":1184:1199  announcement_id */\n      dup7\n        /* \"contracts/SimpleCounter.sol\":1174:1200  IDtoCount[announcement_id] */\n      dup2\n      mstore\n      0x20\n      add\n      swap1\n      dup2\n      mstore\n      0x20\n      add\n      0x00\n      keccak256\n        /* \"contracts/SimpleCounter.sol\":1174:1228  IDtoCount[announcement_id] = Announcement[index].count */\n      dup2\n      swap1\n      sstore\n      pop\n        /* \"contracts/SimpleCounter.sol\":1026:1240  {... */\n      pop\n        /* \"contracts/SimpleCounter.sol\":884:1240  if (check == true){... */\n    tag_31:\n        /* \"contracts/SimpleCounter.sol\":808:1250  {... */\n      pop\n      pop\n        /* \"contracts/SimpleCounter.sol\":563:1250  if(Announcement.length == 0){... */\n    tag_18:\n        /* \"contracts/SimpleCounter.sol\":498:1256  function incrementCounter(uint announcement_id) public {... */\n      pop\n      jump\t// out\n        /* \"contracts/SimpleCounter.sol\":241:492  function CheckIfUnique(uint announcement_id) private view returns(bool a,uint b){... */\n    tag_20:\n        /* \"contracts/SimpleCounter.sol\":307:313  bool a */\n      0x00\n        /* \"contracts/SimpleCounter.sol\":314:320  uint b */\n      dup1\n        /* \"contracts/SimpleCounter.sol\":335:341  uint i */\n      0x00\n        /* \"contracts/SimpleCounter.sol\":331:486  for(uint i=0; i<Announcement.length; i++){... */\n    tag_40:\n        /* \"contracts/SimpleCounter.sol\":347:359  Announcement */\n      0x01\n        /* \"contracts/SimpleCounter.sol\":347:366  Announcement.length */\n      dup1\n      sload\n      swap1\n      pop\n        /* \"contracts/SimpleCounter.sol\":345:346  i */\n      dup2\n        /* \"contracts/SimpleCounter.sol\":345:366  i<Announcement.length */\n      lt\n        /* \"contracts/SimpleCounter.sol\":331:486  for(uint i=0; i<Announcement.length; i++){... */\n      iszero\n      tag_41\n      jumpi\n        /* \"contracts/SimpleCounter.sol\":408:420  Announcement */\n      0x01\n        /* \"contracts/SimpleCounter.sol\":421:422  i */\n      dup2\n        /* \"contracts/SimpleCounter.sol\":408:423  Announcement[i] */\n      dup2\n      sload\n      dup2\n      lt\n      tag_43\n      jumpi\n      tag_44\n      tag_24\n      jump\t// in\n    tag_44:\n    tag_43:\n      swap1\n      0x00\n      mstore\n      keccak256(0x00, 0x20)\n      swap1\n      0x02\n      mul\n      add\n        /* \"contracts/SimpleCounter.sol\":408:426  Announcement[i].ID */\n      0x00\n      add\n      sload\n        /* \"contracts/SimpleCounter.sol\":389:404  announcement_id */\n      dup5\n        /* \"contracts/SimpleCounter.sol\":389:426  announcement_id == Announcement[i].ID */\n      sub\n        /* \"contracts/SimpleCounter.sol\":386:476  if(announcement_id == Announcement[i].ID){... */\n      tag_46\n      jumpi\n        /* \"contracts/SimpleCounter.sol\":453:457  true */\n      0x01\n        /* \"contracts/SimpleCounter.sol\":459:460  i */\n      dup2\n        /* \"contracts/SimpleCounter.sol\":445:461  return (true, i) */\n      swap3\n      pop\n      swap3\n      pop\n      pop\n      jump(tag_39)\n        /* \"contracts/SimpleCounter.sol\":386:476  if(announcement_id == Announcement[i].ID){... */\n    tag_46:\n        /* \"contracts/SimpleCounter.sol\":368:371  i++ */\n      dup1\n      dup1\n      0x01\n      add\n      swap2\n      pop\n      pop\n        /* \"contracts/SimpleCounter.sol\":331:486  for(uint i=0; i<Announcement.length; i++){... */\n      jump(tag_40)\n    tag_41:\n      pop\n        /* \"contracts/SimpleCounter.sol\":241:492  function CheckIfUnique(uint announcement_id) private view returns(bool a,uint b){... */\n    tag_39:\n      swap2\n      pop\n      swap2\n      jump\t// out\n        /* \"#utility.yul\":88:205   */\n    tag_48:\n        /* \"#utility.yul\":197:198   */\n      0x00\n        /* \"#utility.yul\":194:195   */\n      dup1\n        /* \"#utility.yul\":187:199   */\n      revert\n        /* \"#utility.yul\":334:411   */\n    tag_50:\n        /* \"#utility.yul\":371:378   */\n      0x00\n        /* \"#utility.yul\":400:405   */\n      dup2\n        /* \"#utility.yul\":389:405   */\n      swap1\n      pop\n        /* \"#utility.yul\":334:411   */\n      swap2\n      swap1\n      pop\n      jump\t// out\n        /* \"#utility.yul\":417:539   */\n    tag_51:\n        /* \"#utility.yul\":490:514   */\n      tag_61\n        /* \"#utility.yul\":508:513   */\n      dup2\n        /* \"#utility.yul\":490:514   */\n      tag_50\n      jump\t// in\n    tag_61:\n        /* \"#utility.yul\":483:488   */\n      dup2\n        /* \"#utility.yul\":480:515   */\n      eq\n        /* \"#utility.yul\":470:533   */\n      tag_62\n      jumpi\n        /* \"#utility.yul\":529:530   */\n      0x00\n        /* \"#utility.yul\":526:527   */\n      dup1\n        /* \"#utility.yul\":519:531   */\n      revert\n        /* \"#utility.yul\":470:533   */\n    tag_62:\n        /* \"#utility.yul\":417:539   */\n      pop\n      jump\t// out\n        /* \"#utility.yul\":545:684   */\n    tag_52:\n        /* \"#utility.yul\":591:596   */\n      0x00\n        /* \"#utility.yul\":629:635   */\n      dup2\n        /* \"#utility.yul\":616:636   */\n      calldataload\n        /* \"#utility.yul\":607:636   */\n      swap1\n      pop\n        /* \"#utility.yul\":645:678   */\n      tag_64\n        /* \"#utility.yul\":672:677   */\n      dup2\n        /* \"#utility.yul\":645:678   */\n      tag_51\n      jump\t// in\n    tag_64:\n        /* \"#utility.yul\":545:684   */\n      swap3\n      swap2\n      pop\n      pop\n      jump\t// out\n        /* \"#utility.yul\":690:1019   */\n    tag_7:\n        /* \"#utility.yul\":749:755   */\n      0x00\n        /* \"#utility.yul\":798:800   */\n      0x20\n        /* \"#utility.yul\":786:795   */\n      dup3\n        /* \"#utility.yul\":777:784   */\n      dup5\n        /* \"#utility.yul\":773:796   */\n      sub\n        /* \"#utility.yul\":769:801   */\n      slt\n        /* \"#utility.yul\":766:885   */\n      iszero\n      tag_66\n      jumpi\n        /* \"#utility.yul\":804:883   */\n      tag_67\n      tag_48\n      jump\t// in\n    tag_67:\n        /* \"#utility.yul\":766:885   */\n    tag_66:\n        /* \"#utility.yul\":924:925   */\n      0x00\n        /* \"#utility.yul\":949:1002   */\n      tag_68\n        /* \"#utility.yul\":994:1001   */\n      dup5\n        /* \"#utility.yul\":985:991   */\n      dup3\n        /* \"#utility.yul\":974:983   */\n      dup6\n        /* \"#utility.yul\":970:992   */\n      add\n        /* \"#utility.yul\":949:1002   */\n      tag_52\n      jump\t// in\n    tag_68:\n        /* \"#utility.yul\":939:1002   */\n      swap2\n      pop\n        /* \"#utility.yul\":895:1012   */\n      pop\n        /* \"#utility.yul\":690:1019   */\n      swap3\n      swap2\n      pop\n      pop\n      jump\t// out\n        /* \"#utility.yul\":1025:1143   */\n    tag_53:\n        /* \"#utility.yul\":1112:1136   */\n      tag_70\n        /* \"#utility.yul\":1130:1135   */\n      dup2\n        /* \"#utility.yul\":1112:1136   */\n      tag_50\n      jump\t// in\n    tag_70:\n        /* \"#utility.yul\":1107:1110   */\n      dup3\n        /* \"#utility.yul\":1100:1137   */\n      mstore\n        /* \"#utility.yul\":1025:1143   */\n      pop\n      pop\n      jump\t// out\n        /* \"#utility.yul\":1149:1371   */\n    tag_10:\n        /* \"#utility.yul\":1242:1246   */\n      0x00\n        /* \"#utility.yul\":1280:1282   */\n      0x20\n        /* \"#utility.yul\":1269:1278   */\n      dup3\n        /* \"#utility.yul\":1265:1283   */\n      add\n        /* \"#utility.yul\":1257:1283   */\n      swap1\n      pop\n        /* \"#utility.yul\":1293:1364   */\n      tag_72\n        /* \"#utility.yul\":1361:1362   */\n      0x00\n        /* \"#utility.yul\":1350:1359   */\n      dup4\n        /* \"#utility.yul\":1346:1363   */\n      add\n        /* \"#utility.yul\":1337:1343   */\n      dup5\n        /* \"#utility.yul\":1293:1364   */\n      tag_53\n      jump\t// in\n    tag_72:\n        /* \"#utility.yul\":1149:1371   */\n      swap3\n      swap2\n      pop\n      pop\n      jump\t// out\n        /* \"#utility.yul\":1377:1557   */\n    tag_24:\n        /* \"#utility.yul\":1425:1502   */\n      0x4e487b7100000000000000000000000000000000000000000000000000000000\n        /* \"#utility.yul\":1422:1423   */\n      0x00\n        /* \"#utility.yul\":1415:1503   */\n      mstore\n        /* \"#utility.yul\":1522:1526   */\n      0x32\n        /* \"#utility.yul\":1519:1520   */\n      0x04\n        /* \"#utility.yul\":1512:1527   */\n      mstore\n        /* \"#utility.yul\":1546:1550   */\n      0x24\n        /* \"#utility.yul\":1543:1544   */\n      0x00\n        /* \"#utility.yul\":1536:1551   */\n      revert\n        /* \"#utility.yul\":1563:1743   */\n    tag_54:\n        /* \"#utility.yul\":1611:1688   */\n      0x4e487b7100000000000000000000000000000000000000000000000000000000\n        /* \"#utility.yul\":1608:1609   */\n      0x00\n        /* \"#utility.yul\":1601:1689   */\n      mstore\n        /* \"#utility.yul\":1708:1712   */\n      0x11\n        /* \"#utility.yul\":1705:1706   */\n      0x04\n        /* \"#utility.yul\":1698:1713   */\n      mstore\n        /* \"#utility.yul\":1732:1736   */\n      0x24\n        /* \"#utility.yul\":1729:1730   */\n      0x00\n        /* \"#utility.yul\":1722:1737   */\n      revert\n        /* \"#utility.yul\":1749:1982   */\n    tag_27:\n        /* \"#utility.yul\":1788:1791   */\n      0x00\n        /* \"#utility.yul\":1811:1835   */\n      tag_76\n        /* \"#utility.yul\":1829:1834   */\n      dup3\n        /* \"#utility.yul\":1811:1835   */\n      tag_50\n      jump\t// in\n    tag_76:\n        /* \"#utility.yul\":1802:1835   */\n      swap2\n      pop\n        /* \"#utility.yul\":1857:1923   */\n      0xffffffffffffffffffffffffffffffffffffffffffffffffffffffffffffffff\n        /* \"#utility.yul\":1850:1855   */\n      dup3\n        /* \"#utility.yul\":1847:1924   */\n      sub\n        /* \"#utility.yul\":1844:1947   */\n      tag_77\n      jumpi\n        /* \"#utility.yul\":1927:1945   */\n      tag_78\n      tag_54\n      jump\t// in\n    tag_78:\n        /* \"#utility.yul\":1844:1947   */\n    tag_77:\n        /* \"#utility.yul\":1974:1975   */\n      0x01\n        /* \"#utility.yul\":1967:1972   */\n      dup3\n        /* \"#utility.yul\":1963:1976   */\n      add\n        /* \"#utility.yul\":1956:1976   */\n      swap1\n      pop\n        /* \"#utility.yul\":1749:1982   */\n      swap2\n      swap1\n      pop\n      jump\t// out\n\n    auxdata: 0xa26469706673582212202cbaab87b27bce39d42e0a183823ff1f535e67c85880f4509a4000f32bcff7d064736f6c63430008190033\n}\n",
				"bytecode": {
					"linkReferences": {},
					"object": "6080604052348015600e575f80fd5b506104238061001c5f395ff3fe608060405234801561000f575f80fd5b5060043610610034575f3560e01c806311595c1b146100385780636abbb3b414610068575b5f80fd5b610052600480360381019061004d91906102f9565b610084565b60405161005f9190610333565b60405180910390f35b610082600480360381019061007d91906102f9565b61009d565b005b5f805f8381526020019081526020015f20549050919050565b5f6001805490500361011f575f600190505f6040518060400160405280848152602001838152509050600181908060018154018082558091505060019003905f5260205f2090600202015f909190919091505f820151815f0155602082015181600101555050815f808581526020019081526020015f20819055505050610264565b5f8061012a83610267565b9150915060011515821515036101af576001818154811061014e5761014d61034c565b5b905f5260205f2090600202016001015f81548092919061016d906103a6565b9190505550600181815481106101865761018561034c565b5b905f5260205f209060020201600101545f808581526020019081526020015f2081905550610261565b5f6040518060400160405280858152602001600184815481106101d5576101d461034c565b5b905f5260205f209060020201600101548152509050600181908060018154018082558091505060019003905f5260205f2090600202015f909190919091505f820151815f01556020820151816001015550506001828154811061023b5761023a61034c565b5b905f5260205f209060020201600101545f808681526020019081526020015f2081905550505b50505b50565b5f805f5b6001805490508110156102bb576001818154811061028c5761028b61034c565b5b905f5260205f2090600202015f015484036102ae5760018192509250506102bd565b808060010191505061026b565b505b915091565b5f80fd5b5f819050919050565b6102d8816102c6565b81146102e2575f80fd5b50565b5f813590506102f3816102cf565b92915050565b5f6020828403121561030e5761030d6102c2565b5b5f61031b848285016102e5565b91505092915050565b61032d816102c6565b82525050565b5f6020820190506103465f830184610324565b92915050565b7f4e487b71000000000000000000000000000000000000000000000000000000005f52603260045260245ffd5b7f4e487b71000000000000000000000000000000000000000000000000000000005f52601160045260245ffd5b5f6103b0826102c6565b91507fffffffffffffffffffffffffffffffffffffffffffffffffffffffffffffffff82036103e2576103e1610379565b5b60018201905091905056fea26469706673582212202cbaab87b27bce39d42e0a183823ff1f535e67c85880f4509a4000f32bcff7d064736f6c63430008190033",
					"opcodes": "PUSH1 0x80 PUSH1 0x40 MSTORE CALLVALUE DUP1 ISZERO PUSH1 0xE JUMPI PUSH0 DUP1 REVERT JUMPDEST POP PUSH2 0x423 DUP1 PUSH2 0x1C PUSH0 CODECOPY PUSH0 RETURN INVALID PUSH1 0x80 PUSH1 0x40 MSTORE CALLVALUE DUP1 ISZERO PUSH2 0xF JUMPI PUSH0 DUP1 REVERT JUMPDEST POP PUSH1 0x4 CALLDATASIZE LT PUSH2 0x34 JUMPI PUSH0 CALLDATALOAD PUSH1 0xE0 SHR DUP1 PUSH4 0x11595C1B EQ PUSH2 0x38 JUMPI DUP1 PUSH4 0x6ABBB3B4 EQ PUSH2 0x68 JUMPI JUMPDEST PUSH0 DUP1 REVERT JUMPDEST PUSH2 0x52 PUSH1 0x4 DUP1 CALLDATASIZE SUB DUP2 ADD SWAP1 PUSH2 0x4D SWAP2 SWAP1 PUSH2 0x2F9 JUMP JUMPDEST PUSH2 0x84 JUMP JUMPDEST PUSH1 0x40 MLOAD PUSH2 0x5F SWAP2 SWAP1 PUSH2 0x333 JUMP JUMPDEST PUSH1 0x40 MLOAD DUP1 SWAP2 SUB SWAP1 RETURN JUMPDEST PUSH2 0x82 PUSH1 0x4 DUP1 CALLDATASIZE SUB DUP2 ADD SWAP1 PUSH2 0x7D SWAP2 SWAP1 PUSH2 0x2F9 JUMP JUMPDEST PUSH2 0x9D JUMP JUMPDEST STOP JUMPDEST PUSH0 DUP1 PUSH0 DUP4 DUP2 MSTORE PUSH1 0x20 ADD SWAP1 DUP2 MSTORE PUSH1 0x20 ADD PUSH0 KECCAK256 SLOAD SWAP1 POP SWAP2 SWAP1 POP JUMP JUMPDEST PUSH0 PUSH1 0x1 DUP1 SLOAD SWAP1 POP SUB PUSH2 0x11F JUMPI PUSH0 PUSH1 0x1 SWAP1 POP PUSH0 PUSH1 0x40 MLOAD DUP1 PUSH1 0x40 ADD PUSH1 0x40 MSTORE DUP1 DUP5 DUP2 MSTORE PUSH1 0x20 ADD DUP4 DUP2 MSTORE POP SWAP1 POP PUSH1 0x1 DUP2 SWAP1 DUP1 PUSH1 0x1 DUP2 SLOAD ADD DUP1 DUP3 SSTORE DUP1 SWAP2 POP POP PUSH1 0x1 SWAP1 SUB SWAP1 PUSH0 MSTORE PUSH1 0x20 PUSH0 KECCAK256 SWAP1 PUSH1 0x2 MUL ADD PUSH0 SWAP1 SWAP2 SWAP1 SWAP2 SWAP1 SWAP2 POP PUSH0 DUP3 ADD MLOAD DUP2 PUSH0 ADD SSTORE PUSH1 0x20 DUP3 ADD MLOAD DUP2 PUSH1 0x1 ADD SSTORE POP POP DUP2 PUSH0 DUP1 DUP6 DUP2 MSTORE PUSH1 0x20 ADD SWAP1 DUP2 MSTORE PUSH1 0x20 ADD PUSH0 KECCAK256 DUP2 SWAP1 SSTORE POP POP POP PUSH2 0x264 JUMP JUMPDEST PUSH0 DUP1 PUSH2 0x12A DUP4 PUSH2 0x267 JUMP JUMPDEST SWAP2 POP SWAP2 POP PUSH1 0x1 ISZERO ISZERO DUP3 ISZERO ISZERO SUB PUSH2 0x1AF JUMPI PUSH1 0x1 DUP2 DUP2 SLOAD DUP2 LT PUSH2 0x14E JUMPI PUSH2 0x14D PUSH2 0x34C JUMP JUMPDEST JUMPDEST SWAP1 PUSH0 MSTORE PUSH1 0x20 PUSH0 KECCAK256 SWAP1 PUSH1 0x2 MUL ADD PUSH1 0x1 ADD PUSH0 DUP2 SLOAD DUP1 SWAP3 SWAP2 SWAP1 PUSH2 0x16D SWAP1 PUSH2 0x3A6 JUMP JUMPDEST SWAP2 SWAP1 POP SSTORE POP PUSH1 0x1 DUP2 DUP2 SLOAD DUP2 LT PUSH2 0x186 JUMPI PUSH2 0x185 PUSH2 0x34C JUMP JUMPDEST JUMPDEST SWAP1 PUSH0 MSTORE PUSH1 0x20 PUSH0 KECCAK256 SWAP1 PUSH1 0x2 MUL ADD PUSH1 0x1 ADD SLOAD PUSH0 DUP1 DUP6 DUP2 MSTORE PUSH1 0x20 ADD SWAP1 DUP2 MSTORE PUSH1 0x20 ADD PUSH0 KECCAK256 DUP2 SWAP1 SSTORE POP PUSH2 0x261 JUMP JUMPDEST PUSH0 PUSH1 0x40 MLOAD DUP1 PUSH1 0x40 ADD PUSH1 0x40 MSTORE DUP1 DUP6 DUP2 MSTORE PUSH1 0x20 ADD PUSH1 0x1 DUP5 DUP2 SLOAD DUP2 LT PUSH2 0x1D5 JUMPI PUSH2 0x1D4 PUSH2 0x34C JUMP JUMPDEST JUMPDEST SWAP1 PUSH0 MSTORE PUSH1 0x20 PUSH0 KECCAK256 SWAP1 PUSH1 0x2 MUL ADD PUSH1 0x1 ADD SLOAD DUP2 MSTORE POP SWAP1 POP PUSH1 0x1 DUP2 SWAP1 DUP1 PUSH1 0x1 DUP2 SLOAD ADD DUP1 DUP3 SSTORE DUP1 SWAP2 POP POP PUSH1 0x1 SWAP1 SUB SWAP1 PUSH0 MSTORE PUSH1 0x20 PUSH0 KECCAK256 SWAP1 PUSH1 0x2 MUL ADD PUSH0 SWAP1 SWAP2 SWAP1 SWAP2 SWAP1 SWAP2 POP PUSH0 DUP3 ADD MLOAD DUP2 PUSH0 ADD SSTORE PUSH1 0x20 DUP3 ADD MLOAD DUP2 PUSH1 0x1 ADD SSTORE POP POP PUSH1 0x1 DUP3 DUP2 SLOAD DUP2 LT PUSH2 0x23B JUMPI PUSH2 0x23A PUSH2 0x34C JUMP JUMPDEST JUMPDEST SWAP1 PUSH0 MSTORE PUSH1 0x20 PUSH0 KECCAK256 SWAP1 PUSH1 0x2 MUL ADD PUSH1 0x1 ADD SLOAD PUSH0 DUP1 DUP7 DUP2 MSTORE PUSH1 0x20 ADD SWAP1 DUP2 MSTORE PUSH1 0x20 ADD PUSH0 KECCAK256 DUP2 SWAP1 SSTORE POP POP JUMPDEST POP POP JUMPDEST POP JUMP JUMPDEST PUSH0 DUP1 PUSH0 JUMPDEST PUSH1 0x1 DUP1 SLOAD SWAP1 POP DUP2 LT ISZERO PUSH2 0x2BB JUMPI PUSH1 0x1 DUP2 DUP2 SLOAD DUP2 LT PUSH2 0x28C JUMPI PUSH2 0x28B PUSH2 0x34C JUMP JUMPDEST JUMPDEST SWAP1 PUSH0 MSTORE PUSH1 0x20 PUSH0 KECCAK256 SWAP1 PUSH1 0x2 MUL ADD PUSH0 ADD SLOAD DUP5 SUB PUSH2 0x2AE JUMPI PUSH1 0x1 DUP2 SWAP3 POP SWAP3 POP POP PUSH2 0x2BD JUMP JUMPDEST DUP1 DUP1 PUSH1 0x1 ADD SWAP2 POP POP PUSH2 0x26B JUMP JUMPDEST POP JUMPDEST SWAP2 POP SWAP2 JUMP JUMPDEST PUSH0 DUP1 REVERT JUMPDEST PUSH0 DUP2 SWAP1 POP SWAP2 SWAP1 POP JUMP JUMPDEST PUSH2 0x2D8 DUP2 PUSH2 0x2C6 JUMP JUMPDEST DUP2 EQ PUSH2 0x2E2 JUMPI PUSH0 DUP1 REVERT JUMPDEST POP JUMP JUMPDEST PUSH0 DUP2 CALLDATALOAD SWAP1 POP PUSH2 0x2F3 DUP2 PUSH2 0x2CF JUMP JUMPDEST SWAP3 SWAP2 POP POP JUMP JUMPDEST PUSH0 PUSH1 0x20 DUP3 DUP5 SUB SLT ISZERO PUSH2 0x30E JUMPI PUSH2 0x30D PUSH2 0x2C2 JUMP JUMPDEST JUMPDEST PUSH0 PUSH2 0x31B DUP5 DUP3 DUP6 ADD PUSH2 0x2E5 JUMP JUMPDEST SWAP2 POP POP SWAP3 SWAP2 POP POP JUMP JUMPDEST PUSH2 0x32D DUP2 PUSH2 0x2C6 JUMP JUMPDEST DUP3 MSTORE POP POP JUMP JUMPDEST PUSH0 PUSH1 0x20 DUP3 ADD SWAP1 POP PUSH2 0x346 PUSH0 DUP4 ADD DUP5 PUSH2 0x324 JUMP JUMPDEST SWAP3 SWAP2 POP POP JUMP JUMPDEST PUSH32 0x4E487B7100000000000000000000000000000000000000000000000000000000 PUSH0 MSTORE PUSH1 0x32 PUSH1 0x4 MSTORE PUSH1 0x24 PUSH0 REVERT JUMPDEST PUSH32 0x4E487B7100000000000000000000000000000000000000000000000000000000 PUSH0 MSTORE PUSH1 0x11 PUSH1 0x4 MSTORE PUSH1 0x24 PUSH0 REVERT JUMPDEST PUSH0 PUSH2 0x3B0 DUP3 PUSH2 0x2C6 JUMP JUMPDEST SWAP2 POP PUSH32 0xFFFFFFFFFFFFFFFFFFFFFFFFFFFFFFFFFFFFFFFFFFFFFFFFFFFFFFFFFFFFFFFF DUP3 SUB PUSH2 0x3E2 JUMPI PUSH2 0x3E1 PUSH2 0x379 JUMP JUMPDEST JUMPDEST PUSH1 0x1 DUP3 ADD SWAP1 POP SWAP2 SWAP1 POP JUMP INVALID LOG2 PUSH5 0x6970667358 0x22 SLT KECCAK256 0x2C 0xBA 0xAB DUP8 0xB2 PUSH28 0xCE39D42E0A183823FF1F535E67C85880F4509A4000F32BCFF7D06473 PUSH16 0x6C634300081900330000000000000000 "
				},
				"gasEstimates": {
					"creation": {
						"codeDepositCost": "211800",
						"executionCost": "255",
						"totalCost": "212055"
					},
					"external": {
						"incrementCounter(uint256)": "infinite",
						"viewCounter(uint256)": "infinite"
					},
					"internal": {
						"CheckIfUnique(uint256)": "infinite"
					}
				},
				"methodIdentifiers": {
					"incrementCounter(uint256)": "6abbb3b4",
					"viewCounter(uint256)": "11595c1b"
				}
			},
			"storageLayout": {
				"storage": [
					{
						"astId": 5,
						"contract": "contracts/SimpleCounter.sol:CommunityCounter",
						"label": "IDtoCount",
						"offset": 0,
						"slot": "0",
						"type": "t_mapping(t_uint256,t_uint256)"
					},
					{
						"astId": 14,
						"contract": "contracts/SimpleCounter.sol:CommunityCounter",
						"label": "Announcement",
						"offset": 0,
						"slot": "1",
						"type": "t_array(t_struct(Counter)10_storage)dyn_storage"
					}
				],
				"types": {
					"t_array(t_struct(Counter)10_storage)dyn_storage": {
						"base": "t_struct(Counter)10_storage",
						"encoding": "dynamic_array",
						"label": "struct CommunityCounter.Counter[]",
						"numberOfBytes": "32"
					},
					"t_mapping(t_uint256,t_uint256)": {
						"encoding": "mapping",
						"key": "t_uint256",
						"label": "mapping(uint256 => uint256)",
						"numberOfBytes": "32",
						"value": "t_uint256"
					},
					"t_struct(Counter)10_storage": {
						"encoding": "inplace",
						"label": "struct CommunityCounter.Counter",
						"members": [
							{
								"astId": 7,
								"contract": "contracts/SimpleCounter.sol:CommunityCounter",
								"label": "ID",
								"offset": 0,
								"slot": "0",
								"type": "t_uint256"
							},
							{
								"astId": 9,
								"contract": "contracts/SimpleCounter.sol:CommunityCounter",
								"label": "count",
								"offset": 0,
								"slot": "1",
								"type": "t_uint256"
							}
						],
						"numberOfBytes": "64"
					},
					"t_uint256": {
						"encoding": "inplace",
						"label": "uint256",
						"numberOfBytes": "32"
					}
				}
			},
			"userdoc": {
				"kind": "user",
				"methods": {},
				"version": 1
			}
		}
	}
}