{
	"contracts/Auction.sol": {
		"Auction": {
			"abi": [
				{
					"inputs": [
						{
							"internalType": "uint256",
							"name": "itemNumber",
							"type": "uint256"
						},
						{
							"internalType": "uint256",
							"name": "bidAmount",
							"type": "uint256"
						}
					],
					"name": "bid",
					"outputs": [],
					"stateMutability": "payable",
					"type": "function"
				},
				{
					"inputs": [
						{
							"internalType": "uint256",
							"name": "itemNumber",
							"type": "uint256"
						}
					],
					"name": "cancelAuction",
					"outputs": [],
					"stateMutability": "nonpayable",
					"type": "function"
				},
				{
					"inputs": [
						{
							"internalType": "uint256",
							"name": "itemNumber",
							"type": "uint256"
						}
					],
					"name": "checkActiveBidPrice",
					"outputs": [
						{
							"internalType": "uint256",
							"name": "",
							"type": "uint256"
						}
					],
					"stateMutability": "view",
					"type": "function"
				},
				{
					"inputs": [
						{
							"internalType": "uint256",
							"name": "itemNumber",
							"type": "uint256"
						}
					],
					"name": "checkAuctionActive",
					"outputs": [
						{
							"internalType": "bool",
							"name": "",
							"type": "bool"
						}
					],
					"stateMutability": "nonpayable",
					"type": "function"
				},
				{
					"inputs": [
						{
							"internalType": "uint256",
							"name": "itemNumber",
							"type": "uint256"
						}
					],
					"name": "checkHighestBidder",
					"outputs": [
						{
							"internalType": "address",
							"name": "",
							"type": "address"
						}
					],
					"stateMutability": "nonpayable",
					"type": "function"
				},
				{
					"inputs": [
						{
							"internalType": "uint256",
							"name": "itemNumber",
							"type": "uint256"
						},
						{
							"internalType": "uint256",
							"name": "startingPrice",
							"type": "uint256"
						},
						{
							"internalType": "uint256",
							"name": "duration",
							"type": "uint256"
						}
					],
					"name": "conditions",
					"outputs": [],
					"stateMutability": "view",
					"type": "function"
				},
				{
					"inputs": [
						{
							"internalType": "uint256",
							"name": "itemNumber",
							"type": "uint256"
						},
						{
							"internalType": "uint256",
							"name": "startingPrice",
							"type": "uint256"
						},
						{
							"internalType": "uint256",
							"name": "duration",
							"type": "uint256"
						}
					],
					"name": "createAuction",
					"outputs": [],
					"stateMutability": "nonpayable",
					"type": "function"
				},
				{
					"inputs": [
						{
							"internalType": "uint256",
							"name": "itemNumber",
							"type": "uint256"
						}
					],
					"name": "timeLeft",
					"outputs": [
						{
							"internalType": "uint256",
							"name": "",
							"type": "uint256"
						}
					],
					"stateMutability": "view",
					"type": "function"
				}
			],
			"devdoc": {
				"kind": "dev",
				"methods": {},
				"version": 1
			},
			"evm": {
				"assembly": "    /* \"contracts/Auction.sol\":58:3743  contract Auction {... */\n  mstore(0x40, 0x80)\n  callvalue\n  dup1\n  iszero\n  tag_1\n  jumpi\n  0x00\n  dup1\n  revert\ntag_1:\n  pop\n  dataSize(sub_0)\n  dup1\n  dataOffset(sub_0)\n  0x00\n  codecopy\n  0x00\n  return\nstop\n\nsub_0: assembly {\n        /* \"contracts/Auction.sol\":58:3743  contract Auction {... */\n      mstore(0x40, 0x80)\n      jumpi(tag_1, lt(calldatasize, 0x04))\n      shr(0xe0, calldataload(0x00))\n      dup1\n      0x96b5a755\n      gt\n      tag_10\n      jumpi\n      dup1\n      0x96b5a755\n      eq\n      tag_6\n      jumpi\n      dup1\n      0x9f469cc7\n      eq\n      tag_7\n      jumpi\n      dup1\n      0xca7948db\n      eq\n      tag_8\n      jumpi\n      dup1\n      0xcda4beef\n      eq\n      tag_9\n      jumpi\n      jump(tag_1)\n    tag_10:\n      dup1\n      0x083ceba1\n      eq\n      tag_2\n      jumpi\n      dup1\n      0x47cb7a68\n      eq\n      tag_3\n      jumpi\n      dup1\n      0x598647f8\n      eq\n      tag_4\n      jumpi\n      dup1\n      0x71babc66\n      eq\n      tag_5\n      jumpi\n    tag_1:\n      0x00\n      dup1\n      revert\n        /* \"contracts/Auction.sol\":2069:2366  function checkAuctionActive(uint256 itemNumber) public returns (bool) { ... */\n    tag_2:\n      callvalue\n      dup1\n      iszero\n      tag_11\n      jumpi\n      0x00\n      dup1\n      revert\n    tag_11:\n      pop\n      tag_12\n      0x04\n      dup1\n      calldatasize\n      sub\n      dup2\n      add\n      swap1\n      tag_13\n      swap2\n      swap1\n      tag_14\n      jump\t// in\n    tag_13:\n      tag_15\n      jump\t// in\n    tag_12:\n      mload(0x40)\n      tag_16\n      swap2\n      swap1\n      tag_17\n      jump\t// in\n    tag_16:\n      mload(0x40)\n      dup1\n      swap2\n      sub\n      swap1\n      return\n        /* \"contracts/Auction.sol\":2629:2906  function timeLeft(uint256 itemNumber) public view returns(uint256) { ... */\n    tag_3:\n      callvalue\n      dup1\n      iszero\n      tag_18\n      jumpi\n      0x00\n      dup1\n      revert\n    tag_18:\n      pop\n      tag_19\n      0x04\n      dup1\n      calldatasize\n      sub\n      dup2\n      add\n      swap1\n      tag_20\n      swap2\n      swap1\n      tag_14\n      jump\t// in\n    tag_20:\n      tag_21\n      jump\t// in\n    tag_19:\n      mload(0x40)\n      tag_22\n      swap2\n      swap1\n      tag_23\n      jump\t// in\n    tag_22:\n      mload(0x40)\n      dup1\n      swap2\n      sub\n      swap1\n      return\n        /* \"contracts/Auction.sol\":1437:1745  function bid(uint256 itemNumber, uint256 bidAmount) public payable{... */\n    tag_4:\n      tag_24\n      0x04\n      dup1\n      calldatasize\n      sub\n      dup2\n      add\n      swap1\n      tag_25\n      swap2\n      swap1\n      tag_26\n      jump\t// in\n    tag_25:\n      tag_27\n      jump\t// in\n    tag_24:\n      stop\n        /* \"contracts/Auction.sol\":3332:3580  function checkHighestBidder(uint256 itemNumber) public returns (address) { ... */\n    tag_5:\n      callvalue\n      dup1\n      iszero\n      tag_28\n      jumpi\n      0x00\n      dup1\n      revert\n    tag_28:\n      pop\n      tag_29\n      0x04\n      dup1\n      calldatasize\n      sub\n      dup2\n      add\n      swap1\n      tag_30\n      swap2\n      swap1\n      tag_14\n      jump\t// in\n    tag_30:\n      tag_31\n      jump\t// in\n    tag_29:\n      mload(0x40)\n      tag_32\n      swap2\n      swap1\n      tag_33\n      jump\t// in\n    tag_32:\n      mload(0x40)\n      dup1\n      swap2\n      sub\n      swap1\n      return\n        /* \"contracts/Auction.sol\":2380:2625  function cancelAuction(uint256 itemNumber) public { ... */\n    tag_6:\n      callvalue\n      dup1\n      iszero\n      tag_34\n      jumpi\n      0x00\n      dup1\n      revert\n    tag_34:\n      pop\n      tag_35\n      0x04\n      dup1\n      calldatasize\n      sub\n      dup2\n      add\n      swap1\n      tag_36\n      swap2\n      swap1\n      tag_14\n      jump\t// in\n    tag_36:\n      tag_37\n      jump\t// in\n    tag_35:\n      stop\n        /* \"contracts/Auction.sol\":607:1072  function conditions(uint256 itemNumber,uint256 startingPrice,uint256 duration) public view {... */\n    tag_7:\n      callvalue\n      dup1\n      iszero\n      tag_38\n      jumpi\n      0x00\n      dup1\n      revert\n    tag_38:\n      pop\n      tag_39\n      0x04\n      dup1\n      calldatasize\n      sub\n      dup2\n      add\n      swap1\n      tag_40\n      swap2\n      swap1\n      tag_41\n      jump\t// in\n    tag_40:\n      tag_42\n      jump\t// in\n    tag_39:\n      stop\n        /* \"contracts/Auction.sol\":3584:3740  function checkActiveBidPrice(uint256 itemNumber) public view returns (uint256){... */\n    tag_8:\n      callvalue\n      dup1\n      iszero\n      tag_43\n      jumpi\n      0x00\n      dup1\n      revert\n    tag_43:\n      pop\n      tag_44\n      0x04\n      dup1\n      calldatasize\n      sub\n      dup2\n      add\n      swap1\n      tag_45\n      swap2\n      swap1\n      tag_14\n      jump\t// in\n    tag_45:\n      tag_46\n      jump\t// in\n    tag_44:\n      mload(0x40)\n      tag_47\n      swap2\n      swap1\n      tag_23\n      jump\t// in\n    tag_47:\n      mload(0x40)\n      dup1\n      swap2\n      sub\n      swap1\n      return\n        /* \"contracts/Auction.sol\":1076:1424  function createAuction(uint256 itemNumber,uint256 startingPrice,uint256 duration) public { ... */\n    tag_9:\n      callvalue\n      dup1\n      iszero\n      tag_48\n      jumpi\n      0x00\n      dup1\n      revert\n    tag_48:\n      pop\n      tag_49\n      0x04\n      dup1\n      calldatasize\n      sub\n      dup2\n      add\n      swap1\n      tag_50\n      swap2\n      swap1\n      tag_41\n      jump\t// in\n    tag_50:\n      tag_51\n      jump\t// in\n    tag_49:\n      stop\n        /* \"contracts/Auction.sol\":2069:2366  function checkAuctionActive(uint256 itemNumber) public returns (bool) { ... */\n    tag_15:\n        /* \"contracts/Auction.sol\":2133:2137  bool */\n      0x00\n        /* \"contracts/Auction.sol\":2154:2167  uint256 index */\n      dup1\n        /* \"contracts/Auction.sol\":2170:2199  IndexByItemNumber(itemNumber) */\n      tag_53\n        /* \"contracts/Auction.sol\":2188:2198  itemNumber */\n      dup4\n        /* \"contracts/Auction.sol\":2170:2187  IndexByItemNumber */\n      tag_54\n        /* \"contracts/Auction.sol\":2170:2199  IndexByItemNumber(itemNumber) */\n      jump\t// in\n    tag_53:\n        /* \"contracts/Auction.sol\":2154:2199  uint256 index = IndexByItemNumber(itemNumber) */\n      swap1\n      pop\n        /* \"contracts/Auction.sol\":2262:2267  Items */\n      0x00\n        /* \"contracts/Auction.sol\":2268:2273  index */\n      dup2\n        /* \"contracts/Auction.sol\":2262:2274  Items[index] */\n      dup2\n      sload\n      dup2\n      lt\n      tag_55\n      jumpi\n      tag_56\n      tag_57\n      jump\t// in\n    tag_56:\n    tag_55:\n      swap1\n      0x00\n      mstore\n      keccak256(0x00, 0x20)\n      swap1\n      0x04\n      mul\n      add\n        /* \"contracts/Auction.sol\":2262:2288  Items[index].whetherActive */\n      0x03\n      add\n      0x00\n      swap1\n      sload\n      swap1\n      0x0100\n      exp\n      swap1\n      div\n      0xff\n      and\n        /* \"contracts/Auction.sol\":2213:2221  mappings */\n      0x01\n        /* \"contracts/Auction.sol\":2213:2247  mappings.itemNumberToWhetherActive */\n      dup1\n      add\n        /* \"contracts/Auction.sol\":2213:2259  mappings.itemNumberToWhetherActive[itemNumber] */\n      0x00\n        /* \"contracts/Auction.sol\":2248:2258  itemNumber */\n      dup6\n        /* \"contracts/Auction.sol\":2213:2259  mappings.itemNumberToWhetherActive[itemNumber] */\n      dup2\n      mstore\n      0x20\n      add\n      swap1\n      dup2\n      mstore\n      0x20\n      add\n      0x00\n      keccak256\n      0x00\n        /* \"contracts/Auction.sol\":2213:2288  mappings.itemNumberToWhetherActive[itemNumber] = Items[index].whetherActive */\n      0x0100\n      exp\n      dup2\n      sload\n      dup2\n      0xff\n      mul\n      not\n      and\n      swap1\n      dup4\n      iszero\n      iszero\n      mul\n      or\n      swap1\n      sstore\n      pop\n        /* \"contracts/Auction.sol\":2309:2317  mappings */\n      0x01\n        /* \"contracts/Auction.sol\":2309:2343  mappings.itemNumberToWhetherActive */\n      dup1\n      add\n        /* \"contracts/Auction.sol\":2309:2355  mappings.itemNumberToWhetherActive[itemNumber] */\n      0x00\n        /* \"contracts/Auction.sol\":2344:2354  itemNumber */\n      dup5\n        /* \"contracts/Auction.sol\":2309:2355  mappings.itemNumberToWhetherActive[itemNumber] */\n      dup2\n      mstore\n      0x20\n      add\n      swap1\n      dup2\n      mstore\n      0x20\n      add\n      0x00\n      keccak256\n      0x00\n      swap1\n      sload\n      swap1\n      0x0100\n      exp\n      swap1\n      div\n      0xff\n      and\n        /* \"contracts/Auction.sol\":2302:2355  return mappings.itemNumberToWhetherActive[itemNumber] */\n      swap2\n      pop\n      pop\n        /* \"contracts/Auction.sol\":2069:2366  function checkAuctionActive(uint256 itemNumber) public returns (bool) { ... */\n      swap2\n      swap1\n      pop\n      jump\t// out\n        /* \"contracts/Auction.sol\":2629:2906  function timeLeft(uint256 itemNumber) public view returns(uint256) { ... */\n    tag_21:\n        /* \"contracts/Auction.sol\":2687:2694  uint256 */\n      0x00\n        /* \"contracts/Auction.sol\":2765:2769  true */\n      0x01\n        /* \"contracts/Auction.sol\":2715:2769  mappings.itemNumberToWhetherActive[itemNumber] == true */\n      iszero\n      iszero\n        /* \"contracts/Auction.sol\":2715:2723  mappings */\n      0x01\n        /* \"contracts/Auction.sol\":2715:2749  mappings.itemNumberToWhetherActive */\n      dup1\n      add\n        /* \"contracts/Auction.sol\":2715:2761  mappings.itemNumberToWhetherActive[itemNumber] */\n      0x00\n        /* \"contracts/Auction.sol\":2750:2760  itemNumber */\n      dup5\n        /* \"contracts/Auction.sol\":2715:2761  mappings.itemNumberToWhetherActive[itemNumber] */\n      dup2\n      mstore\n      0x20\n      add\n      swap1\n      dup2\n      mstore\n      0x20\n      add\n      0x00\n      keccak256\n      0x00\n      swap1\n      sload\n      swap1\n      0x0100\n      exp\n      swap1\n      div\n      0xff\n      and\n        /* \"contracts/Auction.sol\":2715:2769  mappings.itemNumberToWhetherActive[itemNumber] == true */\n      iszero\n      iszero\n      sub\n        /* \"contracts/Auction.sol\":2711:2896  if (mappings.itemNumberToWhetherActive[itemNumber] == true){... */\n      tag_60\n      jumpi\n        /* \"contracts/Auction.sol\":2795:2810  block.timestamp */\n      timestamp\n        /* \"contracts/Auction.sol\":2788:2810  return block.timestamp */\n      swap1\n      pop\n      jump(tag_59)\n        /* \"contracts/Auction.sol\":2711:2896  if (mappings.itemNumberToWhetherActive[itemNumber] == true){... */\n    tag_60:\n        /* \"contracts/Auction.sol\":2847:2881  revert(\"The auction isnt active.\") */\n      mload(0x40)\n      0x08c379a000000000000000000000000000000000000000000000000000000000\n      dup2\n      mstore\n      0x04\n      add\n      tag_62\n      swap1\n      tag_63\n      jump\t// in\n    tag_62:\n      mload(0x40)\n      dup1\n      swap2\n      sub\n      swap1\n      revert\n        /* \"contracts/Auction.sol\":2629:2906  function timeLeft(uint256 itemNumber) public view returns(uint256) { ... */\n    tag_59:\n      swap2\n      swap1\n      pop\n      jump\t// out\n        /* \"contracts/Auction.sol\":1437:1745  function bid(uint256 itemNumber, uint256 bidAmount) public payable{... */\n    tag_27:\n        /* \"contracts/Auction.sol\":1543:1551  mappings */\n      0x01\n        /* \"contracts/Auction.sol\":1543:1572  mappings.itemNumberToDuration */\n      0x03\n      add\n        /* \"contracts/Auction.sol\":1543:1584  mappings.itemNumberToDuration[itemNumber] */\n      0x00\n        /* \"contracts/Auction.sol\":1573:1583  itemNumber */\n      dup4\n        /* \"contracts/Auction.sol\":1543:1584  mappings.itemNumberToDuration[itemNumber] */\n      dup2\n      mstore\n      0x20\n      add\n      swap1\n      dup2\n      mstore\n      0x20\n      add\n      0x00\n      keccak256\n      sload\n        /* \"contracts/Auction.sol\":1525:1540  block.timestamp */\n      timestamp\n        /* \"contracts/Auction.sol\":1525:1584  block.timestamp < mappings.itemNumberToDuration[itemNumber] */\n      lt\n        /* \"contracts/Auction.sol\":1517:1596  require(block.timestamp < mappings.itemNumberToDuration[itemNumber],\"Time up!\") */\n      tag_65\n      jumpi\n      mload(0x40)\n      0x08c379a000000000000000000000000000000000000000000000000000000000\n      dup2\n      mstore\n      0x04\n      add\n      tag_66\n      swap1\n      tag_67\n      jump\t// in\n    tag_66:\n      mload(0x40)\n      dup1\n      swap2\n      sub\n      swap1\n      revert\n    tag_65:\n        /* \"contracts/Auction.sol\":1631:1640  bidAmount */\n      dup1\n        /* \"contracts/Auction.sol\":1618:1627  msg.value */\n      callvalue\n        /* \"contracts/Auction.sol\":1618:1640  msg.value == bidAmount */\n      eq\n        /* \"contracts/Auction.sol\":1610:1662  require(msg.value == bidAmount, \"Amount is invalid\") */\n      tag_68\n      jumpi\n      mload(0x40)\n      0x08c379a000000000000000000000000000000000000000000000000000000000\n      dup2\n      mstore\n      0x04\n      add\n      tag_69\n      swap1\n      tag_70\n      jump\t// in\n    tag_69:\n      mload(0x40)\n      dup1\n      swap2\n      sub\n      swap1\n      revert\n    tag_68:\n        /* \"contracts/Auction.sol\":1725:1734  bidAmount */\n      dup1\n        /* \"contracts/Auction.sol\":1676:1684  mappings */\n      0x01\n        /* \"contracts/Auction.sol\":1676:1710  mappings.itemNumberToStartingPrice */\n      0x00\n      add\n        /* \"contracts/Auction.sol\":1676:1722  mappings.itemNumberToStartingPrice[itemNumber] */\n      0x00\n        /* \"contracts/Auction.sol\":1711:1721  itemNumber */\n      dup5\n        /* \"contracts/Auction.sol\":1676:1722  mappings.itemNumberToStartingPrice[itemNumber] */\n      dup2\n      mstore\n      0x20\n      add\n      swap1\n      dup2\n      mstore\n      0x20\n      add\n      0x00\n      keccak256\n        /* \"contracts/Auction.sol\":1676:1734  mappings.itemNumberToStartingPrice[itemNumber] = bidAmount */\n      dup2\n      swap1\n      sstore\n      pop\n        /* \"contracts/Auction.sol\":1437:1745  function bid(uint256 itemNumber, uint256 bidAmount) public payable{... */\n      pop\n      pop\n      jump\t// out\n        /* \"contracts/Auction.sol\":3332:3580  function checkHighestBidder(uint256 itemNumber) public returns (address) { ... */\n    tag_31:\n        /* \"contracts/Auction.sol\":3396:3403  address */\n      0x00\n        /* \"contracts/Auction.sol\":3420:3434  uint256 maxbid */\n      dup1\n        /* \"contracts/Auction.sol\":3437:3457  checkMax(itemNumber) */\n      tag_72\n        /* \"contracts/Auction.sol\":3446:3456  itemNumber */\n      dup4\n        /* \"contracts/Auction.sol\":3437:3445  checkMax */\n      tag_73\n        /* \"contracts/Auction.sol\":3437:3457  checkMax(itemNumber) */\n      jump\t// in\n    tag_72:\n        /* \"contracts/Auction.sol\":3420:3457  uint256 maxbid = checkMax(itemNumber) */\n      swap1\n      pop\n        /* \"contracts/Auction.sol\":3506:3516  msg.sender */\n      caller\n        /* \"contracts/Auction.sol\":3471:3479  mappings */\n      0x01\n        /* \"contracts/Auction.sol\":3471:3495  mappings.maxbidToAddress */\n      0x02\n      add\n        /* \"contracts/Auction.sol\":3471:3503  mappings.maxbidToAddress[maxbid] */\n      0x00\n        /* \"contracts/Auction.sol\":3496:3502  maxbid */\n      dup4\n        /* \"contracts/Auction.sol\":3471:3503  mappings.maxbidToAddress[maxbid] */\n      dup2\n      mstore\n      0x20\n      add\n      swap1\n      dup2\n      mstore\n      0x20\n      add\n      0x00\n      keccak256\n      0x00\n        /* \"contracts/Auction.sol\":3471:3516  mappings.maxbidToAddress[maxbid] = msg.sender */\n      0x0100\n      exp\n      dup2\n      sload\n      dup2\n      0xffffffffffffffffffffffffffffffffffffffff\n      mul\n      not\n      and\n      swap1\n      dup4\n      0xffffffffffffffffffffffffffffffffffffffff\n      and\n      mul\n      or\n      swap1\n      sstore\n      pop\n        /* \"contracts/Auction.sol\":3537:3545  mappings */\n      0x01\n        /* \"contracts/Auction.sol\":3537:3561  mappings.maxbidToAddress */\n      0x02\n      add\n        /* \"contracts/Auction.sol\":3537:3569  mappings.maxbidToAddress[maxbid] */\n      0x00\n        /* \"contracts/Auction.sol\":3562:3568  maxbid */\n      dup3\n        /* \"contracts/Auction.sol\":3537:3569  mappings.maxbidToAddress[maxbid] */\n      dup2\n      mstore\n      0x20\n      add\n      swap1\n      dup2\n      mstore\n      0x20\n      add\n      0x00\n      keccak256\n      0x00\n      swap1\n      sload\n      swap1\n      0x0100\n      exp\n      swap1\n      div\n      0xffffffffffffffffffffffffffffffffffffffff\n      and\n        /* \"contracts/Auction.sol\":3530:3569  return mappings.maxbidToAddress[maxbid] */\n      swap2\n      pop\n      pop\n        /* \"contracts/Auction.sol\":3332:3580  function checkHighestBidder(uint256 itemNumber) public returns (address) { ... */\n      swap2\n      swap1\n      pop\n      jump\t// out\n        /* \"contracts/Auction.sol\":2380:2625  function cancelAuction(uint256 itemNumber) public { ... */\n    tag_37:\n        /* \"contracts/Auction.sol\":2445:2458  uint256 index */\n      0x00\n        /* \"contracts/Auction.sol\":2461:2490  IndexByItemNumber(itemNumber) */\n      tag_75\n        /* \"contracts/Auction.sol\":2479:2489  itemNumber */\n      dup3\n        /* \"contracts/Auction.sol\":2461:2478  IndexByItemNumber */\n      tag_54\n        /* \"contracts/Auction.sol\":2461:2490  IndexByItemNumber(itemNumber) */\n      jump\t// in\n    tag_75:\n        /* \"contracts/Auction.sol\":2445:2490  uint256 index = IndexByItemNumber(itemNumber) */\n      swap1\n      pop\n        /* \"contracts/Auction.sol\":2558:2562  true */\n      0x01\n        /* \"contracts/Auction.sol\":2508:2562  mappings.itemNumberToWhetherActive[itemNumber] == true */\n      iszero\n      iszero\n        /* \"contracts/Auction.sol\":2508:2516  mappings */\n      0x01\n        /* \"contracts/Auction.sol\":2508:2542  mappings.itemNumberToWhetherActive */\n      dup1\n      add\n        /* \"contracts/Auction.sol\":2508:2554  mappings.itemNumberToWhetherActive[itemNumber] */\n      0x00\n        /* \"contracts/Auction.sol\":2543:2553  itemNumber */\n      dup5\n        /* \"contracts/Auction.sol\":2508:2554  mappings.itemNumberToWhetherActive[itemNumber] */\n      dup2\n      mstore\n      0x20\n      add\n      swap1\n      dup2\n      mstore\n      0x20\n      add\n      0x00\n      keccak256\n      0x00\n      swap1\n      sload\n      swap1\n      0x0100\n      exp\n      swap1\n      div\n      0xff\n      and\n        /* \"contracts/Auction.sol\":2508:2562  mappings.itemNumberToWhetherActive[itemNumber] == true */\n      iszero\n      iszero\n      sub\n        /* \"contracts/Auction.sol\":2504:2615  if (mappings.itemNumberToWhetherActive[itemNumber] == true){... */\n      tag_76\n      jumpi\n        /* \"contracts/Auction.sol\":2588:2593  Items */\n      0x00\n        /* \"contracts/Auction.sol\":2594:2599  index */\n      dup2\n        /* \"contracts/Auction.sol\":2588:2600  Items[index] */\n      dup2\n      sload\n      dup2\n      lt\n      tag_77\n      jumpi\n      tag_78\n      tag_57\n      jump\t// in\n    tag_78:\n    tag_77:\n      swap1\n      0x00\n      mstore\n      keccak256(0x00, 0x20)\n      swap1\n      0x04\n      mul\n      add\n      0x00\n        /* \"contracts/Auction.sol\":2581:2600  delete Items[index] */\n      dup1\n      dup3\n      add\n      0x00\n      swap1\n      sstore\n      0x01\n      dup3\n      add\n      0x00\n      swap1\n      sstore\n      0x02\n      dup3\n      add\n      0x00\n      swap1\n      sstore\n      0x03\n      dup3\n      add\n      exp(0x0100, 0x00)\n      dup2\n      sload\n      swap1\n      0xff\n      mul\n      not\n      and\n      swap1\n      sstore\n      pop\n      pop\n        /* \"contracts/Auction.sol\":2504:2615  if (mappings.itemNumberToWhetherActive[itemNumber] == true){... */\n    tag_76:\n        /* \"contracts/Auction.sol\":2430:2625  { ... */\n      pop\n        /* \"contracts/Auction.sol\":2380:2625  function cancelAuction(uint256 itemNumber) public { ... */\n      pop\n      jump\t// out\n        /* \"contracts/Auction.sol\":607:1072  function conditions(uint256 itemNumber,uint256 startingPrice,uint256 duration) public view {... */\n    tag_42:\n        /* \"contracts/Auction.sol\":717:723  uint i */\n      0x00\n        /* \"contracts/Auction.sol\":712:912  for (uint i=0; i < Items.length; i++) ... */\n    tag_81:\n        /* \"contracts/Auction.sol\":731:736  Items */\n      0x00\n        /* \"contracts/Auction.sol\":731:743  Items.length */\n      dup1\n      sload\n      swap1\n      pop\n        /* \"contracts/Auction.sol\":727:728  i */\n      dup2\n        /* \"contracts/Auction.sol\":727:743  i < Items.length */\n      lt\n        /* \"contracts/Auction.sol\":712:912  for (uint i=0; i < Items.length; i++) ... */\n      iszero\n      tag_82\n      jumpi\n        /* \"contracts/Auction.sol\":807:817  itemNumber */\n      dup4\n        /* \"contracts/Auction.sol\":784:789  Items */\n      0x00\n        /* \"contracts/Auction.sol\":790:791  i */\n      dup3\n        /* \"contracts/Auction.sol\":784:792  Items[i] */\n      dup2\n      sload\n      dup2\n      lt\n      tag_84\n      jumpi\n      tag_85\n      tag_57\n      jump\t// in\n    tag_85:\n    tag_84:\n      swap1\n      0x00\n      mstore\n      keccak256(0x00, 0x20)\n      swap1\n      0x04\n      mul\n      add\n        /* \"contracts/Auction.sol\":784:803  Items[i].ItemNumber */\n      0x00\n      add\n      sload\n        /* \"contracts/Auction.sol\":784:817  Items[i].ItemNumber == itemNumber */\n      sub\n        /* \"contracts/Auction.sol\":781:898  if(Items[i].ItemNumber == itemNumber){... */\n      tag_87\n      jumpi\n        /* \"contracts/Auction.sol\":840:879  revert(\"Item Number should be unique.\") */\n      mload(0x40)\n      0x08c379a000000000000000000000000000000000000000000000000000000000\n      dup2\n      mstore\n      0x04\n      add\n      tag_88\n      swap1\n      tag_89\n      jump\t// in\n    tag_88:\n      mload(0x40)\n      dup1\n      swap2\n      sub\n      swap1\n      revert\n        /* \"contracts/Auction.sol\":781:898  if(Items[i].ItemNumber == itemNumber){... */\n    tag_87:\n        /* \"contracts/Auction.sol\":745:748  i++ */\n      dup1\n      dup1\n      0x01\n      add\n      swap2\n      pop\n      pop\n        /* \"contracts/Auction.sol\":712:912  for (uint i=0; i < Items.length; i++) ... */\n      jump(tag_81)\n    tag_82:\n      pop\n        /* \"contracts/Auction.sol\":959:960  0 */\n      0x00\n        /* \"contracts/Auction.sol\":942:955  startingPrice */\n      dup3\n        /* \"contracts/Auction.sol\":942:960  startingPrice == 0 */\n      eq\n        /* \"contracts/Auction.sol\":942:977  startingPrice == 0 || duration == 0 */\n      dup1\n      tag_90\n      jumpi\n      pop\n        /* \"contracts/Auction.sol\":976:977  0 */\n      0x00\n        /* \"contracts/Auction.sol\":964:972  duration */\n      dup2\n        /* \"contracts/Auction.sol\":964:977  duration == 0 */\n      eq\n        /* \"contracts/Auction.sol\":942:977  startingPrice == 0 || duration == 0 */\n    tag_90:\n        /* \"contracts/Auction.sol\":938:1062  if (startingPrice == 0 || duration == 0) {... */\n      iszero\n      tag_91\n      jumpi\n        /* \"contracts/Auction.sol\":997:1047  revert(\"Starting price or duration cannont be 0.\") */\n      mload(0x40)\n      0x08c379a000000000000000000000000000000000000000000000000000000000\n      dup2\n      mstore\n      0x04\n      add\n      tag_92\n      swap1\n      tag_93\n      jump\t// in\n    tag_92:\n      mload(0x40)\n      dup1\n      swap2\n      sub\n      swap1\n      revert\n        /* \"contracts/Auction.sol\":938:1062  if (startingPrice == 0 || duration == 0) {... */\n    tag_91:\n        /* \"contracts/Auction.sol\":607:1072  function conditions(uint256 itemNumber,uint256 startingPrice,uint256 duration) public view {... */\n      pop\n      pop\n      pop\n      jump\t// out\n        /* \"contracts/Auction.sol\":3584:3740  function checkActiveBidPrice(uint256 itemNumber) public view returns (uint256){... */\n    tag_46:\n        /* \"contracts/Auction.sol\":3654:3661  uint256 */\n      0x00\n        /* \"contracts/Auction.sol\":3683:3691  mappings */\n      0x01\n        /* \"contracts/Auction.sol\":3683:3717  mappings.itemNumberToStartingPrice */\n      0x00\n      add\n        /* \"contracts/Auction.sol\":3683:3729  mappings.itemNumberToStartingPrice[itemNumber] */\n      0x00\n        /* \"contracts/Auction.sol\":3718:3728  itemNumber */\n      dup4\n        /* \"contracts/Auction.sol\":3683:3729  mappings.itemNumberToStartingPrice[itemNumber] */\n      dup2\n      mstore\n      0x20\n      add\n      swap1\n      dup2\n      mstore\n      0x20\n      add\n      0x00\n      keccak256\n      sload\n        /* \"contracts/Auction.sol\":3676:3729  return mappings.itemNumberToStartingPrice[itemNumber] */\n      swap1\n      pop\n        /* \"contracts/Auction.sol\":3584:3740  function checkActiveBidPrice(uint256 itemNumber) public view returns (uint256){... */\n      swap2\n      swap1\n      pop\n      jump\t// out\n        /* \"contracts/Auction.sol\":1076:1424  function createAuction(uint256 itemNumber,uint256 startingPrice,uint256 duration) public { ... */\n    tag_51:\n        /* \"contracts/Auction.sol\":1180:1225  conditions(itemNumber,startingPrice,duration) */\n      tag_96\n        /* \"contracts/Auction.sol\":1191:1201  itemNumber */\n      dup4\n        /* \"contracts/Auction.sol\":1202:1215  startingPrice */\n      dup4\n        /* \"contracts/Auction.sol\":1216:1224  duration */\n      dup4\n        /* \"contracts/Auction.sol\":1180:1190  conditions */\n      tag_42\n        /* \"contracts/Auction.sol\":1180:1225  conditions(itemNumber,startingPrice,duration) */\n      jump\t// in\n    tag_96:\n        /* \"contracts/Auction.sol\":1239:1261  AuctionItem memory add */\n      0x00\n        /* \"contracts/Auction.sol\":1264:1318  AuctionItem(itemNumber, startingPrice, duration, true) */\n      mload(0x40)\n      dup1\n      0x80\n      add\n      0x40\n      mstore\n      dup1\n        /* \"contracts/Auction.sol\":1276:1286  itemNumber */\n      dup6\n        /* \"contracts/Auction.sol\":1264:1318  AuctionItem(itemNumber, startingPrice, duration, true) */\n      dup2\n      mstore\n      0x20\n      add\n        /* \"contracts/Auction.sol\":1288:1301  startingPrice */\n      dup5\n        /* \"contracts/Auction.sol\":1264:1318  AuctionItem(itemNumber, startingPrice, duration, true) */\n      dup2\n      mstore\n      0x20\n      add\n        /* \"contracts/Auction.sol\":1303:1311  duration */\n      dup4\n        /* \"contracts/Auction.sol\":1264:1318  AuctionItem(itemNumber, startingPrice, duration, true) */\n      dup2\n      mstore\n      0x20\n      add\n        /* \"contracts/Auction.sol\":1313:1317  true */\n      0x01\n        /* \"contracts/Auction.sol\":1264:1318  AuctionItem(itemNumber, startingPrice, duration, true) */\n      iszero\n      iszero\n      dup2\n      mstore\n      pop\n        /* \"contracts/Auction.sol\":1239:1318  AuctionItem memory add = AuctionItem(itemNumber, startingPrice, duration, true) */\n      swap1\n      pop\n        /* \"contracts/Auction.sol\":1332:1337  Items */\n      0x00\n        /* \"contracts/Auction.sol\":1343:1346  add */\n      dup2\n        /* \"contracts/Auction.sol\":1332:1347  Items.push(add) */\n      swap1\n      dup1\n      0x01\n      dup2\n      sload\n      add\n      dup1\n      dup3\n      sstore\n      dup1\n      swap2\n      pop\n      pop\n      0x01\n      swap1\n      sub\n      swap1\n      0x00\n      mstore\n      keccak256(0x00, 0x20)\n      swap1\n      0x04\n      mul\n      add\n      0x00\n      swap1\n      swap2\n      swap1\n      swap2\n      swap1\n      swap2\n      pop\n      0x00\n      dup3\n      add\n      mload\n      dup2\n      0x00\n      add\n      sstore\n      0x20\n      dup3\n      add\n      mload\n      dup2\n      0x01\n      add\n      sstore\n      0x40\n      dup3\n      add\n      mload\n      dup2\n      0x02\n      add\n      sstore\n      0x60\n      dup3\n      add\n      mload\n      dup2\n      0x03\n      add\n      exp(0x0100, 0x00)\n      dup2\n      sload\n      dup2\n      0xff\n      mul\n      not\n      and\n      swap1\n      dup4\n      iszero\n      iszero\n      mul\n      or\n      swap1\n      sstore\n      pop\n      pop\n      pop\n        /* \"contracts/Auction.sol\":1405:1413  duration */\n      dup2\n        /* \"contracts/Auction.sol\":1361:1369  mappings */\n      0x01\n        /* \"contracts/Auction.sol\":1361:1390  mappings.itemNumberToDuration */\n      0x03\n      add\n        /* \"contracts/Auction.sol\":1361:1402  mappings.itemNumberToDuration[itemNumber] */\n      0x00\n        /* \"contracts/Auction.sol\":1391:1401  itemNumber */\n      dup7\n        /* \"contracts/Auction.sol\":1361:1402  mappings.itemNumberToDuration[itemNumber] */\n      dup2\n      mstore\n      0x20\n      add\n      swap1\n      dup2\n      mstore\n      0x20\n      add\n      0x00\n      keccak256\n        /* \"contracts/Auction.sol\":1361:1413  mappings.itemNumberToDuration[itemNumber] = duration */\n      dup2\n      swap1\n      sstore\n      pop\n        /* \"contracts/Auction.sol\":1165:1424  { ... */\n      pop\n        /* \"contracts/Auction.sol\":1076:1424  function createAuction(uint256 itemNumber,uint256 startingPrice,uint256 duration) public { ... */\n      pop\n      pop\n      pop\n      jump\t// out\n        /* \"contracts/Auction.sol\":1755:2065  function IndexByItemNumber(uint256 itemNumber) private view returns(uint256){... */\n    tag_54:\n        /* \"contracts/Auction.sol\":1823:1830  uint256 */\n      0x00\n        /* \"contracts/Auction.sol\":1845:1858  uint256 index */\n      dup1\n        /* \"contracts/Auction.sol\":1861:1862  0 */\n      0x00\n        /* \"contracts/Auction.sol\":1845:1862  uint256 index = 0 */\n      swap1\n      pop\n        /* \"contracts/Auction.sol\":1881:1890  uint256 i */\n      0x00\n        /* \"contracts/Auction.sol\":1876:2029  for (uint256 i=0; index!=0 ; i++){... */\n    tag_99:\n        /* \"contracts/Auction.sol\":1901:1902  0 */\n      0x00\n        /* \"contracts/Auction.sol\":1894:1899  index */\n      dup3\n        /* \"contracts/Auction.sol\":1894:1902  index!=0 */\n      eq\n        /* \"contracts/Auction.sol\":1876:2029  for (uint256 i=0; index!=0 ; i++){... */\n      tag_100\n      jumpi\n        /* \"contracts/Auction.sol\":1954:1964  itemNumber */\n      dup4\n        /* \"contracts/Auction.sol\":1931:1936  Items */\n      0x00\n        /* \"contracts/Auction.sol\":1937:1938  i */\n      dup3\n        /* \"contracts/Auction.sol\":1931:1939  Items[i] */\n      dup2\n      sload\n      dup2\n      lt\n      tag_102\n      jumpi\n      tag_103\n      tag_57\n      jump\t// in\n    tag_103:\n    tag_102:\n      swap1\n      0x00\n      mstore\n      keccak256(0x00, 0x20)\n      swap1\n      0x04\n      mul\n      add\n        /* \"contracts/Auction.sol\":1931:1950  Items[i].ItemNumber */\n      0x00\n      add\n      sload\n        /* \"contracts/Auction.sol\":1931:1964  Items[i].ItemNumber == itemNumber */\n      sub\n        /* \"contracts/Auction.sol\":1927:2015  if (Items[i].ItemNumber == itemNumber){... */\n      tag_105\n      jumpi\n        /* \"contracts/Auction.sol\":1995:1996  i */\n      dup1\n        /* \"contracts/Auction.sol\":1987:1996  index = i */\n      swap2\n      pop\n        /* \"contracts/Auction.sol\":1927:2015  if (Items[i].ItemNumber == itemNumber){... */\n    tag_105:\n        /* \"contracts/Auction.sol\":1905:1908  i++ */\n      dup1\n      dup1\n      tag_106\n      swap1\n      tag_107\n      jump\t// in\n    tag_106:\n      swap2\n      pop\n      pop\n        /* \"contracts/Auction.sol\":1876:2029  for (uint256 i=0; index!=0 ; i++){... */\n      jump(tag_99)\n    tag_100:\n      pop\n        /* \"contracts/Auction.sol\":2049:2054  index */\n      dup1\n        /* \"contracts/Auction.sol\":2042:2054  return index */\n      swap2\n      pop\n      pop\n        /* \"contracts/Auction.sol\":1755:2065  function IndexByItemNumber(uint256 itemNumber) private view returns(uint256){... */\n      swap2\n      swap1\n      pop\n      jump\t// out\n        /* \"contracts/Auction.sol\":2916:3317  function checkMax(uint256 itemNumber) private view returns(uint256) {... */\n    tag_73:\n        /* \"contracts/Auction.sol\":2975:2982  uint256 */\n      0x00\n        /* \"contracts/Auction.sol\":2998:3009  uint256 max */\n      dup1\n        /* \"contracts/Auction.sol\":3012:3013  0 */\n      0x00\n        /* \"contracts/Auction.sol\":2998:3013  uint256 max = 0 */\n      swap1\n      pop\n        /* \"contracts/Auction.sol\":3032:3041  uint256 i */\n      0x00\n        /* \"contracts/Auction.sol\":3027:3294  for (uint256 i=0; i<Items.length; i++) ... */\n    tag_109:\n        /* \"contracts/Auction.sol\":3047:3052  Items */\n      0x00\n        /* \"contracts/Auction.sol\":3047:3059  Items.length */\n      dup1\n      sload\n      swap1\n      pop\n        /* \"contracts/Auction.sol\":3045:3046  i */\n      dup2\n        /* \"contracts/Auction.sol\":3045:3059  i<Items.length */\n      lt\n        /* \"contracts/Auction.sol\":3027:3294  for (uint256 i=0; i<Items.length; i++) ... */\n      iszero\n      tag_110\n      jumpi\n        /* \"contracts/Auction.sol\":3151:3154  max */\n      dup2\n        /* \"contracts/Auction.sol\":3101:3109  mappings */\n      0x01\n        /* \"contracts/Auction.sol\":3101:3135  mappings.itemNumberToStartingPrice */\n      0x00\n      add\n        /* \"contracts/Auction.sol\":3101:3147  mappings.itemNumberToStartingPrice[itemNumber] */\n      0x00\n        /* \"contracts/Auction.sol\":3136:3146  itemNumber */\n      dup7\n        /* \"contracts/Auction.sol\":3101:3147  mappings.itemNumberToStartingPrice[itemNumber] */\n      dup2\n      mstore\n      0x20\n      add\n      swap1\n      dup2\n      mstore\n      0x20\n      add\n      0x00\n      keccak256\n      sload\n        /* \"contracts/Auction.sol\":3101:3154  mappings.itemNumberToStartingPrice[itemNumber] >= max */\n      lt\n        /* \"contracts/Auction.sol\":3097:3280  if (mappings.itemNumberToStartingPrice[itemNumber] >= max){... */\n      tag_112\n      jumpi\n        /* \"contracts/Auction.sol\":3183:3191  mappings */\n      0x01\n        /* \"contracts/Auction.sol\":3183:3217  mappings.itemNumberToStartingPrice */\n      0x00\n      add\n        /* \"contracts/Auction.sol\":3183:3229  mappings.itemNumberToStartingPrice[itemNumber] */\n      0x00\n        /* \"contracts/Auction.sol\":3218:3228  itemNumber */\n      dup6\n        /* \"contracts/Auction.sol\":3183:3229  mappings.itemNumberToStartingPrice[itemNumber] */\n      dup2\n      mstore\n      0x20\n      add\n      swap1\n      dup2\n      mstore\n      0x20\n      add\n      0x00\n      keccak256\n      sload\n        /* \"contracts/Auction.sol\":3177:3229  max = mappings.itemNumberToStartingPrice[itemNumber] */\n      swap2\n      pop\n        /* \"contracts/Auction.sol\":3258:3261  max */\n      dup2\n        /* \"contracts/Auction.sol\":3251:3261  return max */\n      swap3\n      pop\n      pop\n      pop\n      jump(tag_108)\n        /* \"contracts/Auction.sol\":3097:3280  if (mappings.itemNumberToStartingPrice[itemNumber] >= max){... */\n    tag_112:\n        /* \"contracts/Auction.sol\":3061:3064  i++ */\n      dup1\n      dup1\n      0x01\n      add\n      swap2\n      pop\n      pop\n        /* \"contracts/Auction.sol\":3027:3294  for (uint256 i=0; i<Items.length; i++) ... */\n      jump(tag_109)\n    tag_110:\n      pop\n        /* \"contracts/Auction.sol\":2984:3317  {... */\n      pop\n        /* \"contracts/Auction.sol\":2916:3317  function checkMax(uint256 itemNumber) private view returns(uint256) {... */\n    tag_108:\n      swap2\n      swap1\n      pop\n      jump\t// out\n        /* \"#utility.yul\":88:205   */\n    tag_114:\n        /* \"#utility.yul\":197:198   */\n      0x00\n        /* \"#utility.yul\":194:195   */\n      dup1\n        /* \"#utility.yul\":187:199   */\n      revert\n        /* \"#utility.yul\":334:411   */\n    tag_116:\n        /* \"#utility.yul\":371:378   */\n      0x00\n        /* \"#utility.yul\":400:405   */\n      dup2\n        /* \"#utility.yul\":389:405   */\n      swap1\n      pop\n        /* \"#utility.yul\":334:411   */\n      swap2\n      swap1\n      pop\n      jump\t// out\n        /* \"#utility.yul\":417:539   */\n    tag_117:\n        /* \"#utility.yul\":490:514   */\n      tag_143\n        /* \"#utility.yul\":508:513   */\n      dup2\n        /* \"#utility.yul\":490:514   */\n      tag_116\n      jump\t// in\n    tag_143:\n        /* \"#utility.yul\":483:488   */\n      dup2\n        /* \"#utility.yul\":480:515   */\n      eq\n        /* \"#utility.yul\":470:533   */\n      tag_144\n      jumpi\n        /* \"#utility.yul\":529:530   */\n      0x00\n        /* \"#utility.yul\":526:527   */\n      dup1\n        /* \"#utility.yul\":519:531   */\n      revert\n        /* \"#utility.yul\":470:533   */\n    tag_144:\n        /* \"#utility.yul\":417:539   */\n      pop\n      jump\t// out\n        /* \"#utility.yul\":545:684   */\n    tag_118:\n        /* \"#utility.yul\":591:596   */\n      0x00\n        /* \"#utility.yul\":629:635   */\n      dup2\n        /* \"#utility.yul\":616:636   */\n      calldataload\n        /* \"#utility.yul\":607:636   */\n      swap1\n      pop\n        /* \"#utility.yul\":645:678   */\n      tag_146\n        /* \"#utility.yul\":672:677   */\n      dup2\n        /* \"#utility.yul\":645:678   */\n      tag_117\n      jump\t// in\n    tag_146:\n        /* \"#utility.yul\":545:684   */\n      swap3\n      swap2\n      pop\n      pop\n      jump\t// out\n        /* \"#utility.yul\":690:1019   */\n    tag_14:\n        /* \"#utility.yul\":749:755   */\n      0x00\n        /* \"#utility.yul\":798:800   */\n      0x20\n        /* \"#utility.yul\":786:795   */\n      dup3\n        /* \"#utility.yul\":777:784   */\n      dup5\n        /* \"#utility.yul\":773:796   */\n      sub\n        /* \"#utility.yul\":769:801   */\n      slt\n        /* \"#utility.yul\":766:885   */\n      iszero\n      tag_148\n      jumpi\n        /* \"#utility.yul\":804:883   */\n      tag_149\n      tag_114\n      jump\t// in\n    tag_149:\n        /* \"#utility.yul\":766:885   */\n    tag_148:\n        /* \"#utility.yul\":924:925   */\n      0x00\n        /* \"#utility.yul\":949:1002   */\n      tag_150\n        /* \"#utility.yul\":994:1001   */\n      dup5\n        /* \"#utility.yul\":985:991   */\n      dup3\n        /* \"#utility.yul\":974:983   */\n      dup6\n        /* \"#utility.yul\":970:992   */\n      add\n        /* \"#utility.yul\":949:1002   */\n      tag_118\n      jump\t// in\n    tag_150:\n        /* \"#utility.yul\":939:1002   */\n      swap2\n      pop\n        /* \"#utility.yul\":895:1012   */\n      pop\n        /* \"#utility.yul\":690:1019   */\n      swap3\n      swap2\n      pop\n      pop\n      jump\t// out\n        /* \"#utility.yul\":1025:1115   */\n    tag_119:\n        /* \"#utility.yul\":1059:1066   */\n      0x00\n        /* \"#utility.yul\":1102:1107   */\n      dup2\n        /* \"#utility.yul\":1095:1108   */\n      iszero\n        /* \"#utility.yul\":1088:1109   */\n      iszero\n        /* \"#utility.yul\":1077:1109   */\n      swap1\n      pop\n        /* \"#utility.yul\":1025:1115   */\n      swap2\n      swap1\n      pop\n      jump\t// out\n        /* \"#utility.yul\":1121:1230   */\n    tag_120:\n        /* \"#utility.yul\":1202:1223   */\n      tag_153\n        /* \"#utility.yul\":1217:1222   */\n      dup2\n        /* \"#utility.yul\":1202:1223   */\n      tag_119\n      jump\t// in\n    tag_153:\n        /* \"#utility.yul\":1197:1200   */\n      dup3\n        /* \"#utility.yul\":1190:1224   */\n      mstore\n        /* \"#utility.yul\":1121:1230   */\n      pop\n      pop\n      jump\t// out\n        /* \"#utility.yul\":1236:1446   */\n    tag_17:\n        /* \"#utility.yul\":1323:1327   */\n      0x00\n        /* \"#utility.yul\":1361:1363   */\n      0x20\n        /* \"#utility.yul\":1350:1359   */\n      dup3\n        /* \"#utility.yul\":1346:1364   */\n      add\n        /* \"#utility.yul\":1338:1364   */\n      swap1\n      pop\n        /* \"#utility.yul\":1374:1439   */\n      tag_155\n        /* \"#utility.yul\":1436:1437   */\n      0x00\n        /* \"#utility.yul\":1425:1434   */\n      dup4\n        /* \"#utility.yul\":1421:1438   */\n      add\n        /* \"#utility.yul\":1412:1418   */\n      dup5\n        /* \"#utility.yul\":1374:1439   */\n      tag_120\n      jump\t// in\n    tag_155:\n        /* \"#utility.yul\":1236:1446   */\n      swap3\n      swap2\n      pop\n      pop\n      jump\t// out\n        /* \"#utility.yul\":1452:1570   */\n    tag_121:\n        /* \"#utility.yul\":1539:1563   */\n      tag_157\n        /* \"#utility.yul\":1557:1562   */\n      dup2\n        /* \"#utility.yul\":1539:1563   */\n      tag_116\n      jump\t// in\n    tag_157:\n        /* \"#utility.yul\":1534:1537   */\n      dup3\n        /* \"#utility.yul\":1527:1564   */\n      mstore\n        /* \"#utility.yul\":1452:1570   */\n      pop\n      pop\n      jump\t// out\n        /* \"#utility.yul\":1576:1798   */\n    tag_23:\n        /* \"#utility.yul\":1669:1673   */\n      0x00\n        /* \"#utility.yul\":1707:1709   */\n      0x20\n        /* \"#utility.yul\":1696:1705   */\n      dup3\n        /* \"#utility.yul\":1692:1710   */\n      add\n        /* \"#utility.yul\":1684:1710   */\n      swap1\n      pop\n        /* \"#utility.yul\":1720:1791   */\n      tag_159\n        /* \"#utility.yul\":1788:1789   */\n      0x00\n        /* \"#utility.yul\":1777:1786   */\n      dup4\n        /* \"#utility.yul\":1773:1790   */\n      add\n        /* \"#utility.yul\":1764:1770   */\n      dup5\n        /* \"#utility.yul\":1720:1791   */\n      tag_121\n      jump\t// in\n    tag_159:\n        /* \"#utility.yul\":1576:1798   */\n      swap3\n      swap2\n      pop\n      pop\n      jump\t// out\n        /* \"#utility.yul\":1804:2278   */\n    tag_26:\n        /* \"#utility.yul\":1872:1878   */\n      0x00\n        /* \"#utility.yul\":1880:1886   */\n      dup1\n        /* \"#utility.yul\":1929:1931   */\n      0x40\n        /* \"#utility.yul\":1917:1926   */\n      dup4\n        /* \"#utility.yul\":1908:1915   */\n      dup6\n        /* \"#utility.yul\":1904:1927   */\n      sub\n        /* \"#utility.yul\":1900:1932   */\n      slt\n        /* \"#utility.yul\":1897:2016   */\n      iszero\n      tag_161\n      jumpi\n        /* \"#utility.yul\":1935:2014   */\n      tag_162\n      tag_114\n      jump\t// in\n    tag_162:\n        /* \"#utility.yul\":1897:2016   */\n    tag_161:\n        /* \"#utility.yul\":2055:2056   */\n      0x00\n        /* \"#utility.yul\":2080:2133   */\n      tag_163\n        /* \"#utility.yul\":2125:2132   */\n      dup6\n        /* \"#utility.yul\":2116:2122   */\n      dup3\n        /* \"#utility.yul\":2105:2114   */\n      dup7\n        /* \"#utility.yul\":2101:2123   */\n      add\n        /* \"#utility.yul\":2080:2133   */\n      tag_118\n      jump\t// in\n    tag_163:\n        /* \"#utility.yul\":2070:2133   */\n      swap3\n      pop\n        /* \"#utility.yul\":2026:2143   */\n      pop\n        /* \"#utility.yul\":2182:2184   */\n      0x20\n        /* \"#utility.yul\":2208:2261   */\n      tag_164\n        /* \"#utility.yul\":2253:2260   */\n      dup6\n        /* \"#utility.yul\":2244:2250   */\n      dup3\n        /* \"#utility.yul\":2233:2242   */\n      dup7\n        /* \"#utility.yul\":2229:2251   */\n      add\n        /* \"#utility.yul\":2208:2261   */\n      tag_118\n      jump\t// in\n    tag_164:\n        /* \"#utility.yul\":2198:2261   */\n      swap2\n      pop\n        /* \"#utility.yul\":2153:2271   */\n      pop\n        /* \"#utility.yul\":1804:2278   */\n      swap3\n      pop\n      swap3\n      swap1\n      pop\n      jump\t// out\n        /* \"#utility.yul\":2284:2410   */\n    tag_122:\n        /* \"#utility.yul\":2321:2328   */\n      0x00\n        /* \"#utility.yul\":2361:2403   */\n      0xffffffffffffffffffffffffffffffffffffffff\n        /* \"#utility.yul\":2354:2359   */\n      dup3\n        /* \"#utility.yul\":2350:2404   */\n      and\n        /* \"#utility.yul\":2339:2404   */\n      swap1\n      pop\n        /* \"#utility.yul\":2284:2410   */\n      swap2\n      swap1\n      pop\n      jump\t// out\n        /* \"#utility.yul\":2416:2512   */\n    tag_123:\n        /* \"#utility.yul\":2453:2460   */\n      0x00\n        /* \"#utility.yul\":2482:2506   */\n      tag_167\n        /* \"#utility.yul\":2500:2505   */\n      dup3\n        /* \"#utility.yul\":2482:2506   */\n      tag_122\n      jump\t// in\n    tag_167:\n        /* \"#utility.yul\":2471:2506   */\n      swap1\n      pop\n        /* \"#utility.yul\":2416:2512   */\n      swap2\n      swap1\n      pop\n      jump\t// out\n        /* \"#utility.yul\":2518:2636   */\n    tag_124:\n        /* \"#utility.yul\":2605:2629   */\n      tag_169\n        /* \"#utility.yul\":2623:2628   */\n      dup2\n        /* \"#utility.yul\":2605:2629   */\n      tag_123\n      jump\t// in\n    tag_169:\n        /* \"#utility.yul\":2600:2603   */\n      dup3\n        /* \"#utility.yul\":2593:2630   */\n      mstore\n        /* \"#utility.yul\":2518:2636   */\n      pop\n      pop\n      jump\t// out\n        /* \"#utility.yul\":2642:2864   */\n    tag_33:\n        /* \"#utility.yul\":2735:2739   */\n      0x00\n        /* \"#utility.yul\":2773:2775   */\n      0x20\n        /* \"#utility.yul\":2762:2771   */\n      dup3\n        /* \"#utility.yul\":2758:2776   */\n      add\n        /* \"#utility.yul\":2750:2776   */\n      swap1\n      pop\n        /* \"#utility.yul\":2786:2857   */\n      tag_171\n        /* \"#utility.yul\":2854:2855   */\n      0x00\n        /* \"#utility.yul\":2843:2852   */\n      dup4\n        /* \"#utility.yul\":2839:2856   */\n      add\n        /* \"#utility.yul\":2830:2836   */\n      dup5\n        /* \"#utility.yul\":2786:2857   */\n      tag_124\n      jump\t// in\n    tag_171:\n        /* \"#utility.yul\":2642:2864   */\n      swap3\n      swap2\n      pop\n      pop\n      jump\t// out\n        /* \"#utility.yul\":2870:3489   */\n    tag_41:\n        /* \"#utility.yul\":2947:2953   */\n      0x00\n        /* \"#utility.yul\":2955:2961   */\n      dup1\n        /* \"#utility.yul\":2963:2969   */\n      0x00\n        /* \"#utility.yul\":3012:3014   */\n      0x60\n        /* \"#utility.yul\":3000:3009   */\n      dup5\n        /* \"#utility.yul\":2991:2998   */\n      dup7\n        /* \"#utility.yul\":2987:3010   */\n      sub\n        /* \"#utility.yul\":2983:3015   */\n      slt\n        /* \"#utility.yul\":2980:3099   */\n      iszero\n      tag_173\n      jumpi\n        /* \"#utility.yul\":3018:3097   */\n      tag_174\n      tag_114\n      jump\t// in\n    tag_174:\n        /* \"#utility.yul\":2980:3099   */\n    tag_173:\n        /* \"#utility.yul\":3138:3139   */\n      0x00\n        /* \"#utility.yul\":3163:3216   */\n      tag_175\n        /* \"#utility.yul\":3208:3215   */\n      dup7\n        /* \"#utility.yul\":3199:3205   */\n      dup3\n        /* \"#utility.yul\":3188:3197   */\n      dup8\n        /* \"#utility.yul\":3184:3206   */\n      add\n        /* \"#utility.yul\":3163:3216   */\n      tag_118\n      jump\t// in\n    tag_175:\n        /* \"#utility.yul\":3153:3216   */\n      swap4\n      pop\n        /* \"#utility.yul\":3109:3226   */\n      pop\n        /* \"#utility.yul\":3265:3267   */\n      0x20\n        /* \"#utility.yul\":3291:3344   */\n      tag_176\n        /* \"#utility.yul\":3336:3343   */\n      dup7\n        /* \"#utility.yul\":3327:3333   */\n      dup3\n        /* \"#utility.yul\":3316:3325   */\n      dup8\n        /* \"#utility.yul\":3312:3334   */\n      add\n        /* \"#utility.yul\":3291:3344   */\n      tag_118\n      jump\t// in\n    tag_176:\n        /* \"#utility.yul\":3281:3344   */\n      swap3\n      pop\n        /* \"#utility.yul\":3236:3354   */\n      pop\n        /* \"#utility.yul\":3393:3395   */\n      0x40\n        /* \"#utility.yul\":3419:3472   */\n      tag_177\n        /* \"#utility.yul\":3464:3471   */\n      dup7\n        /* \"#utility.yul\":3455:3461   */\n      dup3\n        /* \"#utility.yul\":3444:3453   */\n      dup8\n        /* \"#utility.yul\":3440:3462   */\n      add\n        /* \"#utility.yul\":3419:3472   */\n      tag_118\n      jump\t// in\n    tag_177:\n        /* \"#utility.yul\":3409:3472   */\n      swap2\n      pop\n        /* \"#utility.yul\":3364:3482   */\n      pop\n        /* \"#utility.yul\":2870:3489   */\n      swap3\n      pop\n      swap3\n      pop\n      swap3\n      jump\t// out\n        /* \"#utility.yul\":3495:3675   */\n    tag_57:\n        /* \"#utility.yul\":3543:3620   */\n      0x4e487b7100000000000000000000000000000000000000000000000000000000\n        /* \"#utility.yul\":3540:3541   */\n      0x00\n        /* \"#utility.yul\":3533:3621   */\n      mstore\n        /* \"#utility.yul\":3640:3644   */\n      0x32\n        /* \"#utility.yul\":3637:3638   */\n      0x04\n        /* \"#utility.yul\":3630:3645   */\n      mstore\n        /* \"#utility.yul\":3664:3668   */\n      0x24\n        /* \"#utility.yul\":3661:3662   */\n      0x00\n        /* \"#utility.yul\":3654:3669   */\n      revert\n        /* \"#utility.yul\":3681:3850   */\n    tag_125:\n        /* \"#utility.yul\":3765:3776   */\n      0x00\n        /* \"#utility.yul\":3799:3805   */\n      dup3\n        /* \"#utility.yul\":3794:3797   */\n      dup3\n        /* \"#utility.yul\":3787:3806   */\n      mstore\n        /* \"#utility.yul\":3839:3843   */\n      0x20\n        /* \"#utility.yul\":3834:3837   */\n      dup3\n        /* \"#utility.yul\":3830:3844   */\n      add\n        /* \"#utility.yul\":3815:3844   */\n      swap1\n      pop\n        /* \"#utility.yul\":3681:3850   */\n      swap3\n      swap2\n      pop\n      pop\n      jump\t// out\n        /* \"#utility.yul\":3856:4030   */\n    tag_126:\n        /* \"#utility.yul\":3996:4022   */\n      0x5468652061756374696f6e2069736e74206163746976652e0000000000000000\n        /* \"#utility.yul\":3992:3993   */\n      0x00\n        /* \"#utility.yul\":3984:3990   */\n      dup3\n        /* \"#utility.yul\":3980:3994   */\n      add\n        /* \"#utility.yul\":3973:4023   */\n      mstore\n        /* \"#utility.yul\":3856:4030   */\n      pop\n      jump\t// out\n        /* \"#utility.yul\":4036:4402   */\n    tag_127:\n        /* \"#utility.yul\":4178:4181   */\n      0x00\n        /* \"#utility.yul\":4199:4266   */\n      tag_182\n        /* \"#utility.yul\":4263:4265   */\n      0x18\n        /* \"#utility.yul\":4258:4261   */\n      dup4\n        /* \"#utility.yul\":4199:4266   */\n      tag_125\n      jump\t// in\n    tag_182:\n        /* \"#utility.yul\":4192:4266   */\n      swap2\n      pop\n        /* \"#utility.yul\":4275:4368   */\n      tag_183\n        /* \"#utility.yul\":4364:4367   */\n      dup3\n        /* \"#utility.yul\":4275:4368   */\n      tag_126\n      jump\t// in\n    tag_183:\n        /* \"#utility.yul\":4393:4395   */\n      0x20\n        /* \"#utility.yul\":4388:4391   */\n      dup3\n        /* \"#utility.yul\":4384:4396   */\n      add\n        /* \"#utility.yul\":4377:4396   */\n      swap1\n      pop\n        /* \"#utility.yul\":4036:4402   */\n      swap2\n      swap1\n      pop\n      jump\t// out\n        /* \"#utility.yul\":4408:4827   */\n    tag_63:\n        /* \"#utility.yul\":4574:4578   */\n      0x00\n        /* \"#utility.yul\":4612:4614   */\n      0x20\n        /* \"#utility.yul\":4601:4610   */\n      dup3\n        /* \"#utility.yul\":4597:4615   */\n      add\n        /* \"#utility.yul\":4589:4615   */\n      swap1\n      pop\n        /* \"#utility.yul\":4661:4670   */\n      dup2\n        /* \"#utility.yul\":4655:4659   */\n      dup2\n        /* \"#utility.yul\":4651:4671   */\n      sub\n        /* \"#utility.yul\":4647:4648   */\n      0x00\n        /* \"#utility.yul\":4636:4645   */\n      dup4\n        /* \"#utility.yul\":4632:4649   */\n      add\n        /* \"#utility.yul\":4625:4672   */\n      mstore\n        /* \"#utility.yul\":4689:4820   */\n      tag_185\n        /* \"#utility.yul\":4815:4819   */\n      dup2\n        /* \"#utility.yul\":4689:4820   */\n      tag_127\n      jump\t// in\n    tag_185:\n        /* \"#utility.yul\":4681:4820   */\n      swap1\n      pop\n        /* \"#utility.yul\":4408:4827   */\n      swap2\n      swap1\n      pop\n      jump\t// out\n        /* \"#utility.yul\":4833:4991   */\n    tag_128:\n        /* \"#utility.yul\":4973:4983   */\n      0x54696d6520757021000000000000000000000000000000000000000000000000\n        /* \"#utility.yul\":4969:4970   */\n      0x00\n        /* \"#utility.yul\":4961:4967   */\n      dup3\n        /* \"#utility.yul\":4957:4971   */\n      add\n        /* \"#utility.yul\":4950:4984   */\n      mstore\n        /* \"#utility.yul\":4833:4991   */\n      pop\n      jump\t// out\n        /* \"#utility.yul\":4997:5362   */\n    tag_129:\n        /* \"#utility.yul\":5139:5142   */\n      0x00\n        /* \"#utility.yul\":5160:5226   */\n      tag_188\n        /* \"#utility.yul\":5224:5225   */\n      0x08\n        /* \"#utility.yul\":5219:5222   */\n      dup4\n        /* \"#utility.yul\":5160:5226   */\n      tag_125\n      jump\t// in\n    tag_188:\n        /* \"#utility.yul\":5153:5226   */\n      swap2\n      pop\n        /* \"#utility.yul\":5235:5328   */\n      tag_189\n        /* \"#utility.yul\":5324:5327   */\n      dup3\n        /* \"#utility.yul\":5235:5328   */\n      tag_128\n      jump\t// in\n    tag_189:\n        /* \"#utility.yul\":5353:5355   */\n      0x20\n        /* \"#utility.yul\":5348:5351   */\n      dup3\n        /* \"#utility.yul\":5344:5356   */\n      add\n        /* \"#utility.yul\":5337:5356   */\n      swap1\n      pop\n        /* \"#utility.yul\":4997:5362   */\n      swap2\n      swap1\n      pop\n      jump\t// out\n        /* \"#utility.yul\":5368:5787   */\n    tag_67:\n        /* \"#utility.yul\":5534:5538   */\n      0x00\n        /* \"#utility.yul\":5572:5574   */\n      0x20\n        /* \"#utility.yul\":5561:5570   */\n      dup3\n        /* \"#utility.yul\":5557:5575   */\n      add\n        /* \"#utility.yul\":5549:5575   */\n      swap1\n      pop\n        /* \"#utility.yul\":5621:5630   */\n      dup2\n        /* \"#utility.yul\":5615:5619   */\n      dup2\n        /* \"#utility.yul\":5611:5631   */\n      sub\n        /* \"#utility.yul\":5607:5608   */\n      0x00\n        /* \"#utility.yul\":5596:5605   */\n      dup4\n        /* \"#utility.yul\":5592:5609   */\n      add\n        /* \"#utility.yul\":5585:5632   */\n      mstore\n        /* \"#utility.yul\":5649:5780   */\n      tag_191\n        /* \"#utility.yul\":5775:5779   */\n      dup2\n        /* \"#utility.yul\":5649:5780   */\n      tag_129\n      jump\t// in\n    tag_191:\n        /* \"#utility.yul\":5641:5780   */\n      swap1\n      pop\n        /* \"#utility.yul\":5368:5787   */\n      swap2\n      swap1\n      pop\n      jump\t// out\n        /* \"#utility.yul\":5793:5960   */\n    tag_130:\n        /* \"#utility.yul\":5933:5952   */\n      0x416d6f756e7420697320696e76616c6964000000000000000000000000000000\n        /* \"#utility.yul\":5929:5930   */\n      0x00\n        /* \"#utility.yul\":5921:5927   */\n      dup3\n        /* \"#utility.yul\":5917:5931   */\n      add\n        /* \"#utility.yul\":5910:5953   */\n      mstore\n        /* \"#utility.yul\":5793:5960   */\n      pop\n      jump\t// out\n        /* \"#utility.yul\":5966:6332   */\n    tag_131:\n        /* \"#utility.yul\":6108:6111   */\n      0x00\n        /* \"#utility.yul\":6129:6196   */\n      tag_194\n        /* \"#utility.yul\":6193:6195   */\n      0x11\n        /* \"#utility.yul\":6188:6191   */\n      dup4\n        /* \"#utility.yul\":6129:6196   */\n      tag_125\n      jump\t// in\n    tag_194:\n        /* \"#utility.yul\":6122:6196   */\n      swap2\n      pop\n        /* \"#utility.yul\":6205:6298   */\n      tag_195\n        /* \"#utility.yul\":6294:6297   */\n      dup3\n        /* \"#utility.yul\":6205:6298   */\n      tag_130\n      jump\t// in\n    tag_195:\n        /* \"#utility.yul\":6323:6325   */\n      0x20\n        /* \"#utility.yul\":6318:6321   */\n      dup3\n        /* \"#utility.yul\":6314:6326   */\n      add\n        /* \"#utility.yul\":6307:6326   */\n      swap1\n      pop\n        /* \"#utility.yul\":5966:6332   */\n      swap2\n      swap1\n      pop\n      jump\t// out\n        /* \"#utility.yul\":6338:6757   */\n    tag_70:\n        /* \"#utility.yul\":6504:6508   */\n      0x00\n        /* \"#utility.yul\":6542:6544   */\n      0x20\n        /* \"#utility.yul\":6531:6540   */\n      dup3\n        /* \"#utility.yul\":6527:6545   */\n      add\n        /* \"#utility.yul\":6519:6545   */\n      swap1\n      pop\n        /* \"#utility.yul\":6591:6600   */\n      dup2\n        /* \"#utility.yul\":6585:6589   */\n      dup2\n        /* \"#utility.yul\":6581:6601   */\n      sub\n        /* \"#utility.yul\":6577:6578   */\n      0x00\n        /* \"#utility.yul\":6566:6575   */\n      dup4\n        /* \"#utility.yul\":6562:6579   */\n      add\n        /* \"#utility.yul\":6555:6602   */\n      mstore\n        /* \"#utility.yul\":6619:6750   */\n      tag_197\n        /* \"#utility.yul\":6745:6749   */\n      dup2\n        /* \"#utility.yul\":6619:6750   */\n      tag_131\n      jump\t// in\n    tag_197:\n        /* \"#utility.yul\":6611:6750   */\n      swap1\n      pop\n        /* \"#utility.yul\":6338:6757   */\n      swap2\n      swap1\n      pop\n      jump\t// out\n        /* \"#utility.yul\":6763:6942   */\n    tag_132:\n        /* \"#utility.yul\":6903:6934   */\n      0x4974656d204e756d6265722073686f756c6420626520756e697175652e000000\n        /* \"#utility.yul\":6899:6900   */\n      0x00\n        /* \"#utility.yul\":6891:6897   */\n      dup3\n        /* \"#utility.yul\":6887:6901   */\n      add\n        /* \"#utility.yul\":6880:6935   */\n      mstore\n        /* \"#utility.yul\":6763:6942   */\n      pop\n      jump\t// out\n        /* \"#utility.yul\":6948:7314   */\n    tag_133:\n        /* \"#utility.yul\":7090:7093   */\n      0x00\n        /* \"#utility.yul\":7111:7178   */\n      tag_200\n        /* \"#utility.yul\":7175:7177   */\n      0x1d\n        /* \"#utility.yul\":7170:7173   */\n      dup4\n        /* \"#utility.yul\":7111:7178   */\n      tag_125\n      jump\t// in\n    tag_200:\n        /* \"#utility.yul\":7104:7178   */\n      swap2\n      pop\n        /* \"#utility.yul\":7187:7280   */\n      tag_201\n        /* \"#utility.yul\":7276:7279   */\n      dup3\n        /* \"#utility.yul\":7187:7280   */\n      tag_132\n      jump\t// in\n    tag_201:\n        /* \"#utility.yul\":7305:7307   */\n      0x20\n        /* \"#utility.yul\":7300:7303   */\n      dup3\n        /* \"#utility.yul\":7296:7308   */\n      add\n        /* \"#utility.yul\":7289:7308   */\n      swap1\n      pop\n        /* \"#utility.yul\":6948:7314   */\n      swap2\n      swap1\n      pop\n      jump\t// out\n        /* \"#utility.yul\":7320:7739   */\n    tag_89:\n        /* \"#utility.yul\":7486:7490   */\n      0x00\n        /* \"#utility.yul\":7524:7526   */\n      0x20\n        /* \"#utility.yul\":7513:7522   */\n      dup3\n        /* \"#utility.yul\":7509:7527   */\n      add\n        /* \"#utility.yul\":7501:7527   */\n      swap1\n      pop\n        /* \"#utility.yul\":7573:7582   */\n      dup2\n        /* \"#utility.yul\":7567:7571   */\n      dup2\n        /* \"#utility.yul\":7563:7583   */\n      sub\n        /* \"#utility.yul\":7559:7560   */\n      0x00\n        /* \"#utility.yul\":7548:7557   */\n      dup4\n        /* \"#utility.yul\":7544:7561   */\n      add\n        /* \"#utility.yul\":7537:7584   */\n      mstore\n        /* \"#utility.yul\":7601:7732   */\n      tag_203\n        /* \"#utility.yul\":7727:7731   */\n      dup2\n        /* \"#utility.yul\":7601:7732   */\n      tag_133\n      jump\t// in\n    tag_203:\n        /* \"#utility.yul\":7593:7732   */\n      swap1\n      pop\n        /* \"#utility.yul\":7320:7739   */\n      swap2\n      swap1\n      pop\n      jump\t// out\n        /* \"#utility.yul\":7745:7972   */\n    tag_134:\n        /* \"#utility.yul\":7885:7919   */\n      0x5374617274696e67207072696365206f72206475726174696f6e2063616e6e6f\n        /* \"#utility.yul\":7881:7882   */\n      0x00\n        /* \"#utility.yul\":7873:7879   */\n      dup3\n        /* \"#utility.yul\":7869:7883   */\n      add\n        /* \"#utility.yul\":7862:7920   */\n      mstore\n        /* \"#utility.yul\":7954:7964   */\n      0x6e7420626520302e000000000000000000000000000000000000000000000000\n        /* \"#utility.yul\":7949:7951   */\n      0x20\n        /* \"#utility.yul\":7941:7947   */\n      dup3\n        /* \"#utility.yul\":7937:7952   */\n      add\n        /* \"#utility.yul\":7930:7965   */\n      mstore\n        /* \"#utility.yul\":7745:7972   */\n      pop\n      jump\t// out\n        /* \"#utility.yul\":7978:8344   */\n    tag_135:\n        /* \"#utility.yul\":8120:8123   */\n      0x00\n        /* \"#utility.yul\":8141:8208   */\n      tag_206\n        /* \"#utility.yul\":8205:8207   */\n      0x28\n        /* \"#utility.yul\":8200:8203   */\n      dup4\n        /* \"#utility.yul\":8141:8208   */\n      tag_125\n      jump\t// in\n    tag_206:\n        /* \"#utility.yul\":8134:8208   */\n      swap2\n      pop\n        /* \"#utility.yul\":8217:8310   */\n      tag_207\n        /* \"#utility.yul\":8306:8309   */\n      dup3\n        /* \"#utility.yul\":8217:8310   */\n      tag_134\n      jump\t// in\n    tag_207:\n        /* \"#utility.yul\":8335:8337   */\n      0x40\n        /* \"#utility.yul\":8330:8333   */\n      dup3\n        /* \"#utility.yul\":8326:8338   */\n      add\n        /* \"#utility.yul\":8319:8338   */\n      swap1\n      pop\n        /* \"#utility.yul\":7978:8344   */\n      swap2\n      swap1\n      pop\n      jump\t// out\n        /* \"#utility.yul\":8350:8769   */\n    tag_93:\n        /* \"#utility.yul\":8516:8520   */\n      0x00\n        /* \"#utility.yul\":8554:8556   */\n      0x20\n        /* \"#utility.yul\":8543:8552   */\n      dup3\n        /* \"#utility.yul\":8539:8557   */\n      add\n        /* \"#utility.yul\":8531:8557   */\n      swap1\n      pop\n        /* \"#utility.yul\":8603:8612   */\n      dup2\n        /* \"#utility.yul\":8597:8601   */\n      dup2\n        /* \"#utility.yul\":8593:8613   */\n      sub\n        /* \"#utility.yul\":8589:8590   */\n      0x00\n        /* \"#utility.yul\":8578:8587   */\n      dup4\n        /* \"#utility.yul\":8574:8591   */\n      add\n        /* \"#utility.yul\":8567:8614   */\n      mstore\n        /* \"#utility.yul\":8631:8762   */\n      tag_209\n        /* \"#utility.yul\":8757:8761   */\n      dup2\n        /* \"#utility.yul\":8631:8762   */\n      tag_135\n      jump\t// in\n    tag_209:\n        /* \"#utility.yul\":8623:8762   */\n      swap1\n      pop\n        /* \"#utility.yul\":8350:8769   */\n      swap2\n      swap1\n      pop\n      jump\t// out\n        /* \"#utility.yul\":8775:8955   */\n    tag_136:\n        /* \"#utility.yul\":8823:8900   */\n      0x4e487b7100000000000000000000000000000000000000000000000000000000\n        /* \"#utility.yul\":8820:8821   */\n      0x00\n        /* \"#utility.yul\":8813:8901   */\n      mstore\n        /* \"#utility.yul\":8920:8924   */\n      0x11\n        /* \"#utility.yul\":8917:8918   */\n      0x04\n        /* \"#utility.yul\":8910:8925   */\n      mstore\n        /* \"#utility.yul\":8944:8948   */\n      0x24\n        /* \"#utility.yul\":8941:8942   */\n      0x00\n        /* \"#utility.yul\":8934:8949   */\n      revert\n        /* \"#utility.yul\":8961:9194   */\n    tag_107:\n        /* \"#utility.yul\":9000:9003   */\n      0x00\n        /* \"#utility.yul\":9023:9047   */\n      tag_212\n        /* \"#utility.yul\":9041:9046   */\n      dup3\n        /* \"#utility.yul\":9023:9047   */\n      tag_116\n      jump\t// in\n    tag_212:\n        /* \"#utility.yul\":9014:9047   */\n      swap2\n      pop\n        /* \"#utility.yul\":9069:9135   */\n      0xffffffffffffffffffffffffffffffffffffffffffffffffffffffffffffffff\n        /* \"#utility.yul\":9062:9067   */\n      dup3\n        /* \"#utility.yul\":9059:9136   */\n      sub\n        /* \"#utility.yul\":9056:9159   */\n      tag_213\n      jumpi\n        /* \"#utility.yul\":9139:9157   */\n      tag_214\n      tag_136\n      jump\t// in\n    tag_214:\n        /* \"#utility.yul\":9056:9159   */\n    tag_213:\n        /* \"#utility.yul\":9186:9187   */\n      0x01\n        /* \"#utility.yul\":9179:9184   */\n      dup3\n        /* \"#utility.yul\":9175:9188   */\n      add\n        /* \"#utility.yul\":9168:9188   */\n      swap1\n      pop\n        /* \"#utility.yul\":8961:9194   */\n      swap2\n      swap1\n      pop\n      jump\t// out\n\n    auxdata: 0xa26469706673582212207511f25b38d7d54623dff0a7ea3e4d857d86352bf4ac518160fce3c6a91f6d9c64736f6c63430008190033\n}\n",
				"bytecode": {
					"linkReferences": {},
					"object": "6080604052348015600e575f80fd5b50610beb8061001c5f395ff3fe60806040526004361061007a575f3560e01c806396b5a7551161004d57806396b5a7551461014e5780639f469cc714610176578063ca7948db1461019e578063cda4beef146101da5761007a565b8063083ceba11461007e57806347cb7a68146100ba578063598647f8146100f657806371babc6614610112575b5f80fd5b348015610089575f80fd5b506100a4600480360381019061009f919061076a565b610202565b6040516100b191906107af565b60405180910390f35b3480156100c5575f80fd5b506100e060048036038101906100db919061076a565b61028f565b6040516100ed91906107d7565b60405180910390f35b610110600480360381019061010b91906107f0565b610303565b005b34801561011d575f80fd5b506101386004803603810190610133919061076a565b6103b7565b604051610145919061086d565b60405180910390f35b348015610159575f80fd5b50610174600480360381019061016f919061076a565b610452565b005b348015610181575f80fd5b5061019c60048036038101906101979190610886565b6104d7565b005b3480156101a9575f80fd5b506101c460048036038101906101bf919061076a565b6105a8565b6040516101d191906107d7565b60405180910390f35b3480156101e5575f80fd5b5061020060048036038101906101fb9190610886565b6105c4565b005b5f8061020d8361067a565b90505f8181548110610222576102216108d6565b5b905f5260205f2090600402016003015f9054906101000a900460ff16600180015f8581526020019081526020015f205f6101000a81548160ff021916908315150217905550600180015f8481526020019081526020015f205f9054906101000a900460ff16915050919050565b5f60011515600180015f8481526020019081526020015f205f9054906101000a900460ff161515036102c3574290506102fe565b6040517f08c379a00000000000000000000000000000000000000000000000000000000081526004016102f59061095d565b60405180910390fd5b919050565b60016003015f8381526020019081526020015f20544210610359576040517f08c379a0000000000000000000000000000000000000000000000000000000008152600401610350906109c5565b60405180910390fd5b80341461039b576040517f08c379a000000000000000000000000000000000000000000000000000000000815260040161039290610a2d565b60405180910390fd5b8060015f015f8481526020019081526020015f20819055505050565b5f806103c2836106d1565b90503360016002015f8381526020019081526020015f205f6101000a81548173ffffffffffffffffffffffffffffffffffffffff021916908373ffffffffffffffffffffffffffffffffffffffff16021790555060016002015f8281526020019081526020015f205f9054906101000a900473ffffffffffffffffffffffffffffffffffffffff16915050919050565b5f61045c8261067a565b905060011515600180015f8481526020019081526020015f205f9054906101000a900460ff161515036104d3575f818154811061049c5761049b6108d6565b5b905f5260205f2090600402015f8082015f9055600182015f9055600282015f9055600382015f6101000a81549060ff021916905550505b5050565b5f5b5f8054905081101561055557835f82815481106104f9576104f86108d6565b5b905f5260205f2090600402015f015403610548576040517f08c379a000000000000000000000000000000000000000000000000000000000815260040161053f90610a95565b60405180910390fd5b80806001019150506104d9565b505f82148061056357505f81145b156105a3576040517f08c379a000000000000000000000000000000000000000000000000000000000815260040161059a90610b23565b60405180910390fd5b505050565b5f60015f015f8381526020019081526020015f20549050919050565b6105cf8383836104d7565b5f60405180608001604052808581526020018481526020018381526020016001151581525090505f81908060018154018082558091505060019003905f5260205f2090600402015f909190919091505f820151815f015560208201518160010155604082015181600201556060820151816003015f6101000a81548160ff02191690831515021790555050508160016003015f8681526020019081526020015f208190555050505050565b5f805f90505f5b5f82146106c757835f828154811061069c5761069b6108d6565b5b905f5260205f2090600402015f0154036106b4578091505b80806106bf90610b6e565b915050610681565b5080915050919050565b5f805f90505f5b5f8054905081101561072b578160015f015f8681526020019081526020015f20541061071e5760015f015f8581526020019081526020015f20549150819250505061072e565b80806001019150506106d8565b50505b919050565b5f80fd5b5f819050919050565b61074981610737565b8114610753575f80fd5b50565b5f8135905061076481610740565b92915050565b5f6020828403121561077f5761077e610733565b5b5f61078c84828501610756565b91505092915050565b5f8115159050919050565b6107a981610795565b82525050565b5f6020820190506107c25f8301846107a0565b92915050565b6107d181610737565b82525050565b5f6020820190506107ea5f8301846107c8565b92915050565b5f806040838503121561080657610805610733565b5b5f61081385828601610756565b925050602061082485828601610756565b9150509250929050565b5f73ffffffffffffffffffffffffffffffffffffffff82169050919050565b5f6108578261082e565b9050919050565b6108678161084d565b82525050565b5f6020820190506108805f83018461085e565b92915050565b5f805f6060848603121561089d5761089c610733565b5b5f6108aa86828701610756565b93505060206108bb86828701610756565b92505060406108cc86828701610756565b9150509250925092565b7f4e487b71000000000000000000000000000000000000000000000000000000005f52603260045260245ffd5b5f82825260208201905092915050565b7f5468652061756374696f6e2069736e74206163746976652e00000000000000005f82015250565b5f610947601883610903565b915061095282610913565b602082019050919050565b5f6020820190508181035f8301526109748161093b565b9050919050565b7f54696d65207570210000000000000000000000000000000000000000000000005f82015250565b5f6109af600883610903565b91506109ba8261097b565b602082019050919050565b5f6020820190508181035f8301526109dc816109a3565b9050919050565b7f416d6f756e7420697320696e76616c69640000000000000000000000000000005f82015250565b5f610a17601183610903565b9150610a22826109e3565b602082019050919050565b5f6020820190508181035f830152610a4481610a0b565b9050919050565b7f4974656d204e756d6265722073686f756c6420626520756e697175652e0000005f82015250565b5f610a7f601d83610903565b9150610a8a82610a4b565b602082019050919050565b5f6020820190508181035f830152610aac81610a73565b9050919050565b7f5374617274696e67207072696365206f72206475726174696f6e2063616e6e6f5f8201527f6e7420626520302e000000000000000000000000000000000000000000000000602082015250565b5f610b0d602883610903565b9150610b1882610ab3565b604082019050919050565b5f6020820190508181035f830152610b3a81610b01565b9050919050565b7f4e487b71000000000000000000000000000000000000000000000000000000005f52601160045260245ffd5b5f610b7882610737565b91507fffffffffffffffffffffffffffffffffffffffffffffffffffffffffffffffff8203610baa57610ba9610b41565b5b60018201905091905056fea26469706673582212207511f25b38d7d54623dff0a7ea3e4d857d86352bf4ac518160fce3c6a91f6d9c64736f6c63430008190033",
					"opcodes": "PUSH1 0x80 PUSH1 0x40 MSTORE CALLVALUE DUP1 ISZERO PUSH1 0xE JUMPI PUSH0 DUP1 REVERT JUMPDEST POP PUSH2 0xBEB DUP1 PUSH2 0x1C PUSH0 CODECOPY PUSH0 RETURN INVALID PUSH1 0x80 PUSH1 0x40 MSTORE PUSH1 0x4 CALLDATASIZE LT PUSH2 0x7A JUMPI PUSH0 CALLDATALOAD PUSH1 0xE0 SHR DUP1 PUSH4 0x96B5A755 GT PUSH2 0x4D JUMPI DUP1 PUSH4 0x96B5A755 EQ PUSH2 0x14E JUMPI DUP1 PUSH4 0x9F469CC7 EQ PUSH2 0x176 JUMPI DUP1 PUSH4 0xCA7948DB EQ PUSH2 0x19E JUMPI DUP1 PUSH4 0xCDA4BEEF EQ PUSH2 0x1DA JUMPI PUSH2 0x7A JUMP JUMPDEST DUP1 PUSH4 0x83CEBA1 EQ PUSH2 0x7E JUMPI DUP1 PUSH4 0x47CB7A68 EQ PUSH2 0xBA JUMPI DUP1 PUSH4 0x598647F8 EQ PUSH2 0xF6 JUMPI DUP1 PUSH4 0x71BABC66 EQ PUSH2 0x112 JUMPI JUMPDEST PUSH0 DUP1 REVERT JUMPDEST CALLVALUE DUP1 ISZERO PUSH2 0x89 JUMPI PUSH0 DUP1 REVERT JUMPDEST POP PUSH2 0xA4 PUSH1 0x4 DUP1 CALLDATASIZE SUB DUP2 ADD SWAP1 PUSH2 0x9F SWAP2 SWAP1 PUSH2 0x76A JUMP JUMPDEST PUSH2 0x202 JUMP JUMPDEST PUSH1 0x40 MLOAD PUSH2 0xB1 SWAP2 SWAP1 PUSH2 0x7AF JUMP JUMPDEST PUSH1 0x40 MLOAD DUP1 SWAP2 SUB SWAP1 RETURN JUMPDEST CALLVALUE DUP1 ISZERO PUSH2 0xC5 JUMPI PUSH0 DUP1 REVERT JUMPDEST POP PUSH2 0xE0 PUSH1 0x4 DUP1 CALLDATASIZE SUB DUP2 ADD SWAP1 PUSH2 0xDB SWAP2 SWAP1 PUSH2 0x76A JUMP JUMPDEST PUSH2 0x28F JUMP JUMPDEST PUSH1 0x40 MLOAD PUSH2 0xED SWAP2 SWAP1 PUSH2 0x7D7 JUMP JUMPDEST PUSH1 0x40 MLOAD DUP1 SWAP2 SUB SWAP1 RETURN JUMPDEST PUSH2 0x110 PUSH1 0x4 DUP1 CALLDATASIZE SUB DUP2 ADD SWAP1 PUSH2 0x10B SWAP2 SWAP1 PUSH2 0x7F0 JUMP JUMPDEST PUSH2 0x303 JUMP JUMPDEST STOP JUMPDEST CALLVALUE DUP1 ISZERO PUSH2 0x11D JUMPI PUSH0 DUP1 REVERT JUMPDEST POP PUSH2 0x138 PUSH1 0x4 DUP1 CALLDATASIZE SUB DUP2 ADD SWAP1 PUSH2 0x133 SWAP2 SWAP1 PUSH2 0x76A JUMP JUMPDEST PUSH2 0x3B7 JUMP JUMPDEST PUSH1 0x40 MLOAD PUSH2 0x145 SWAP2 SWAP1 PUSH2 0x86D JUMP JUMPDEST PUSH1 0x40 MLOAD DUP1 SWAP2 SUB SWAP1 RETURN JUMPDEST CALLVALUE DUP1 ISZERO PUSH2 0x159 JUMPI PUSH0 DUP1 REVERT JUMPDEST POP PUSH2 0x174 PUSH1 0x4 DUP1 CALLDATASIZE SUB DUP2 ADD SWAP1 PUSH2 0x16F SWAP2 SWAP1 PUSH2 0x76A JUMP JUMPDEST PUSH2 0x452 JUMP JUMPDEST STOP JUMPDEST CALLVALUE DUP1 ISZERO PUSH2 0x181 JUMPI PUSH0 DUP1 REVERT JUMPDEST POP PUSH2 0x19C PUSH1 0x4 DUP1 CALLDATASIZE SUB DUP2 ADD SWAP1 PUSH2 0x197 SWAP2 SWAP1 PUSH2 0x886 JUMP JUMPDEST PUSH2 0x4D7 JUMP JUMPDEST STOP JUMPDEST CALLVALUE DUP1 ISZERO PUSH2 0x1A9 JUMPI PUSH0 DUP1 REVERT JUMPDEST POP PUSH2 0x1C4 PUSH1 0x4 DUP1 CALLDATASIZE SUB DUP2 ADD SWAP1 PUSH2 0x1BF SWAP2 SWAP1 PUSH2 0x76A JUMP JUMPDEST PUSH2 0x5A8 JUMP JUMPDEST PUSH1 0x40 MLOAD PUSH2 0x1D1 SWAP2 SWAP1 PUSH2 0x7D7 JUMP JUMPDEST PUSH1 0x40 MLOAD DUP1 SWAP2 SUB SWAP1 RETURN JUMPDEST CALLVALUE DUP1 ISZERO PUSH2 0x1E5 JUMPI PUSH0 DUP1 REVERT JUMPDEST POP PUSH2 0x200 PUSH1 0x4 DUP1 CALLDATASIZE SUB DUP2 ADD SWAP1 PUSH2 0x1FB SWAP2 SWAP1 PUSH2 0x886 JUMP JUMPDEST PUSH2 0x5C4 JUMP JUMPDEST STOP JUMPDEST PUSH0 DUP1 PUSH2 0x20D DUP4 PUSH2 0x67A JUMP JUMPDEST SWAP1 POP PUSH0 DUP2 DUP2 SLOAD DUP2 LT PUSH2 0x222 JUMPI PUSH2 0x221 PUSH2 0x8D6 JUMP JUMPDEST JUMPDEST SWAP1 PUSH0 MSTORE PUSH1 0x20 PUSH0 KECCAK256 SWAP1 PUSH1 0x4 MUL ADD PUSH1 0x3 ADD PUSH0 SWAP1 SLOAD SWAP1 PUSH2 0x100 EXP SWAP1 DIV PUSH1 0xFF AND PUSH1 0x1 DUP1 ADD PUSH0 DUP6 DUP2 MSTORE PUSH1 0x20 ADD SWAP1 DUP2 MSTORE PUSH1 0x20 ADD PUSH0 KECCAK256 PUSH0 PUSH2 0x100 EXP DUP2 SLOAD DUP2 PUSH1 0xFF MUL NOT AND SWAP1 DUP4 ISZERO ISZERO MUL OR SWAP1 SSTORE POP PUSH1 0x1 DUP1 ADD PUSH0 DUP5 DUP2 MSTORE PUSH1 0x20 ADD SWAP1 DUP2 MSTORE PUSH1 0x20 ADD PUSH0 KECCAK256 PUSH0 SWAP1 SLOAD SWAP1 PUSH2 0x100 EXP SWAP1 DIV PUSH1 0xFF AND SWAP2 POP POP SWAP2 SWAP1 POP JUMP JUMPDEST PUSH0 PUSH1 0x1 ISZERO ISZERO PUSH1 0x1 DUP1 ADD PUSH0 DUP5 DUP2 MSTORE PUSH1 0x20 ADD SWAP1 DUP2 MSTORE PUSH1 0x20 ADD PUSH0 KECCAK256 PUSH0 SWAP1 SLOAD SWAP1 PUSH2 0x100 EXP SWAP1 DIV PUSH1 0xFF AND ISZERO ISZERO SUB PUSH2 0x2C3 JUMPI TIMESTAMP SWAP1 POP PUSH2 0x2FE JUMP JUMPDEST PUSH1 0x40 MLOAD PUSH32 0x8C379A000000000000000000000000000000000000000000000000000000000 DUP2 MSTORE PUSH1 0x4 ADD PUSH2 0x2F5 SWAP1 PUSH2 0x95D JUMP JUMPDEST PUSH1 0x40 MLOAD DUP1 SWAP2 SUB SWAP1 REVERT JUMPDEST SWAP2 SWAP1 POP JUMP JUMPDEST PUSH1 0x1 PUSH1 0x3 ADD PUSH0 DUP4 DUP2 MSTORE PUSH1 0x20 ADD SWAP1 DUP2 MSTORE PUSH1 0x20 ADD PUSH0 KECCAK256 SLOAD TIMESTAMP LT PUSH2 0x359 JUMPI PUSH1 0x40 MLOAD PUSH32 0x8C379A000000000000000000000000000000000000000000000000000000000 DUP2 MSTORE PUSH1 0x4 ADD PUSH2 0x350 SWAP1 PUSH2 0x9C5 JUMP JUMPDEST PUSH1 0x40 MLOAD DUP1 SWAP2 SUB SWAP1 REVERT JUMPDEST DUP1 CALLVALUE EQ PUSH2 0x39B JUMPI PUSH1 0x40 MLOAD PUSH32 0x8C379A000000000000000000000000000000000000000000000000000000000 DUP2 MSTORE PUSH1 0x4 ADD PUSH2 0x392 SWAP1 PUSH2 0xA2D JUMP JUMPDEST PUSH1 0x40 MLOAD DUP1 SWAP2 SUB SWAP1 REVERT JUMPDEST DUP1 PUSH1 0x1 PUSH0 ADD PUSH0 DUP5 DUP2 MSTORE PUSH1 0x20 ADD SWAP1 DUP2 MSTORE PUSH1 0x20 ADD PUSH0 KECCAK256 DUP2 SWAP1 SSTORE POP POP POP JUMP JUMPDEST PUSH0 DUP1 PUSH2 0x3C2 DUP4 PUSH2 0x6D1 JUMP JUMPDEST SWAP1 POP CALLER PUSH1 0x1 PUSH1 0x2 ADD PUSH0 DUP4 DUP2 MSTORE PUSH1 0x20 ADD SWAP1 DUP2 MSTORE PUSH1 0x20 ADD PUSH0 KECCAK256 PUSH0 PUSH2 0x100 EXP DUP2 SLOAD DUP2 PUSH20 0xFFFFFFFFFFFFFFFFFFFFFFFFFFFFFFFFFFFFFFFF MUL NOT AND SWAP1 DUP4 PUSH20 0xFFFFFFFFFFFFFFFFFFFFFFFFFFFFFFFFFFFFFFFF AND MUL OR SWAP1 SSTORE POP PUSH1 0x1 PUSH1 0x2 ADD PUSH0 DUP3 DUP2 MSTORE PUSH1 0x20 ADD SWAP1 DUP2 MSTORE PUSH1 0x20 ADD PUSH0 KECCAK256 PUSH0 SWAP1 SLOAD SWAP1 PUSH2 0x100 EXP SWAP1 DIV PUSH20 0xFFFFFFFFFFFFFFFFFFFFFFFFFFFFFFFFFFFFFFFF AND SWAP2 POP POP SWAP2 SWAP1 POP JUMP JUMPDEST PUSH0 PUSH2 0x45C DUP3 PUSH2 0x67A JUMP JUMPDEST SWAP1 POP PUSH1 0x1 ISZERO ISZERO PUSH1 0x1 DUP1 ADD PUSH0 DUP5 DUP2 MSTORE PUSH1 0x20 ADD SWAP1 DUP2 MSTORE PUSH1 0x20 ADD PUSH0 KECCAK256 PUSH0 SWAP1 SLOAD SWAP1 PUSH2 0x100 EXP SWAP1 DIV PUSH1 0xFF AND ISZERO ISZERO SUB PUSH2 0x4D3 JUMPI PUSH0 DUP2 DUP2 SLOAD DUP2 LT PUSH2 0x49C JUMPI PUSH2 0x49B PUSH2 0x8D6 JUMP JUMPDEST JUMPDEST SWAP1 PUSH0 MSTORE PUSH1 0x20 PUSH0 KECCAK256 SWAP1 PUSH1 0x4 MUL ADD PUSH0 DUP1 DUP3 ADD PUSH0 SWAP1 SSTORE PUSH1 0x1 DUP3 ADD PUSH0 SWAP1 SSTORE PUSH1 0x2 DUP3 ADD PUSH0 SWAP1 SSTORE PUSH1 0x3 DUP3 ADD PUSH0 PUSH2 0x100 EXP DUP2 SLOAD SWAP1 PUSH1 0xFF MUL NOT AND SWAP1 SSTORE POP POP JUMPDEST POP POP JUMP JUMPDEST PUSH0 JUMPDEST PUSH0 DUP1 SLOAD SWAP1 POP DUP2 LT ISZERO PUSH2 0x555 JUMPI DUP4 PUSH0 DUP3 DUP2 SLOAD DUP2 LT PUSH2 0x4F9 JUMPI PUSH2 0x4F8 PUSH2 0x8D6 JUMP JUMPDEST JUMPDEST SWAP1 PUSH0 MSTORE PUSH1 0x20 PUSH0 KECCAK256 SWAP1 PUSH1 0x4 MUL ADD PUSH0 ADD SLOAD SUB PUSH2 0x548 JUMPI PUSH1 0x40 MLOAD PUSH32 0x8C379A000000000000000000000000000000000000000000000000000000000 DUP2 MSTORE PUSH1 0x4 ADD PUSH2 0x53F SWAP1 PUSH2 0xA95 JUMP JUMPDEST PUSH1 0x40 MLOAD DUP1 SWAP2 SUB SWAP1 REVERT JUMPDEST DUP1 DUP1 PUSH1 0x1 ADD SWAP2 POP POP PUSH2 0x4D9 JUMP JUMPDEST POP PUSH0 DUP3 EQ DUP1 PUSH2 0x563 JUMPI POP PUSH0 DUP2 EQ JUMPDEST ISZERO PUSH2 0x5A3 JUMPI PUSH1 0x40 MLOAD PUSH32 0x8C379A000000000000000000000000000000000000000000000000000000000 DUP2 MSTORE PUSH1 0x4 ADD PUSH2 0x59A SWAP1 PUSH2 0xB23 JUMP JUMPDEST PUSH1 0x40 MLOAD DUP1 SWAP2 SUB SWAP1 REVERT JUMPDEST POP POP POP JUMP JUMPDEST PUSH0 PUSH1 0x1 PUSH0 ADD PUSH0 DUP4 DUP2 MSTORE PUSH1 0x20 ADD SWAP1 DUP2 MSTORE PUSH1 0x20 ADD PUSH0 KECCAK256 SLOAD SWAP1 POP SWAP2 SWAP1 POP JUMP JUMPDEST PUSH2 0x5CF DUP4 DUP4 DUP4 PUSH2 0x4D7 JUMP JUMPDEST PUSH0 PUSH1 0x40 MLOAD DUP1 PUSH1 0x80 ADD PUSH1 0x40 MSTORE DUP1 DUP6 DUP2 MSTORE PUSH1 0x20 ADD DUP5 DUP2 MSTORE PUSH1 0x20 ADD DUP4 DUP2 MSTORE PUSH1 0x20 ADD PUSH1 0x1 ISZERO ISZERO DUP2 MSTORE POP SWAP1 POP PUSH0 DUP2 SWAP1 DUP1 PUSH1 0x1 DUP2 SLOAD ADD DUP1 DUP3 SSTORE DUP1 SWAP2 POP POP PUSH1 0x1 SWAP1 SUB SWAP1 PUSH0 MSTORE PUSH1 0x20 PUSH0 KECCAK256 SWAP1 PUSH1 0x4 MUL ADD PUSH0 SWAP1 SWAP2 SWAP1 SWAP2 SWAP1 SWAP2 POP PUSH0 DUP3 ADD MLOAD DUP2 PUSH0 ADD SSTORE PUSH1 0x20 DUP3 ADD MLOAD DUP2 PUSH1 0x1 ADD SSTORE PUSH1 0x40 DUP3 ADD MLOAD DUP2 PUSH1 0x2 ADD SSTORE PUSH1 0x60 DUP3 ADD MLOAD DUP2 PUSH1 0x3 ADD PUSH0 PUSH2 0x100 EXP DUP2 SLOAD DUP2 PUSH1 0xFF MUL NOT AND SWAP1 DUP4 ISZERO ISZERO MUL OR SWAP1 SSTORE POP POP POP DUP2 PUSH1 0x1 PUSH1 0x3 ADD PUSH0 DUP7 DUP2 MSTORE PUSH1 0x20 ADD SWAP1 DUP2 MSTORE PUSH1 0x20 ADD PUSH0 KECCAK256 DUP2 SWAP1 SSTORE POP POP POP POP POP JUMP JUMPDEST PUSH0 DUP1 PUSH0 SWAP1 POP PUSH0 JUMPDEST PUSH0 DUP3 EQ PUSH2 0x6C7 JUMPI DUP4 PUSH0 DUP3 DUP2 SLOAD DUP2 LT PUSH2 0x69C JUMPI PUSH2 0x69B PUSH2 0x8D6 JUMP JUMPDEST JUMPDEST SWAP1 PUSH0 MSTORE PUSH1 0x20 PUSH0 KECCAK256 SWAP1 PUSH1 0x4 MUL ADD PUSH0 ADD SLOAD SUB PUSH2 0x6B4 JUMPI DUP1 SWAP2 POP JUMPDEST DUP1 DUP1 PUSH2 0x6BF SWAP1 PUSH2 0xB6E JUMP JUMPDEST SWAP2 POP POP PUSH2 0x681 JUMP JUMPDEST POP DUP1 SWAP2 POP POP SWAP2 SWAP1 POP JUMP JUMPDEST PUSH0 DUP1 PUSH0 SWAP1 POP PUSH0 JUMPDEST PUSH0 DUP1 SLOAD SWAP1 POP DUP2 LT ISZERO PUSH2 0x72B JUMPI DUP2 PUSH1 0x1 PUSH0 ADD PUSH0 DUP7 DUP2 MSTORE PUSH1 0x20 ADD SWAP1 DUP2 MSTORE PUSH1 0x20 ADD PUSH0 KECCAK256 SLOAD LT PUSH2 0x71E JUMPI PUSH1 0x1 PUSH0 ADD PUSH0 DUP6 DUP2 MSTORE PUSH1 0x20 ADD SWAP1 DUP2 MSTORE PUSH1 0x20 ADD PUSH0 KECCAK256 SLOAD SWAP2 POP DUP2 SWAP3 POP POP POP PUSH2 0x72E JUMP JUMPDEST DUP1 DUP1 PUSH1 0x1 ADD SWAP2 POP POP PUSH2 0x6D8 JUMP JUMPDEST POP POP JUMPDEST SWAP2 SWAP1 POP JUMP JUMPDEST PUSH0 DUP1 REVERT JUMPDEST PUSH0 DUP2 SWAP1 POP SWAP2 SWAP1 POP JUMP JUMPDEST PUSH2 0x749 DUP2 PUSH2 0x737 JUMP JUMPDEST DUP2 EQ PUSH2 0x753 JUMPI PUSH0 DUP1 REVERT JUMPDEST POP JUMP JUMPDEST PUSH0 DUP2 CALLDATALOAD SWAP1 POP PUSH2 0x764 DUP2 PUSH2 0x740 JUMP JUMPDEST SWAP3 SWAP2 POP POP JUMP JUMPDEST PUSH0 PUSH1 0x20 DUP3 DUP5 SUB SLT ISZERO PUSH2 0x77F JUMPI PUSH2 0x77E PUSH2 0x733 JUMP JUMPDEST JUMPDEST PUSH0 PUSH2 0x78C DUP5 DUP3 DUP6 ADD PUSH2 0x756 JUMP JUMPDEST SWAP2 POP POP SWAP3 SWAP2 POP POP JUMP JUMPDEST PUSH0 DUP2 ISZERO ISZERO SWAP1 POP SWAP2 SWAP1 POP JUMP JUMPDEST PUSH2 0x7A9 DUP2 PUSH2 0x795 JUMP JUMPDEST DUP3 MSTORE POP POP JUMP JUMPDEST PUSH0 PUSH1 0x20 DUP3 ADD SWAP1 POP PUSH2 0x7C2 PUSH0 DUP4 ADD DUP5 PUSH2 0x7A0 JUMP JUMPDEST SWAP3 SWAP2 POP POP JUMP JUMPDEST PUSH2 0x7D1 DUP2 PUSH2 0x737 JUMP JUMPDEST DUP3 MSTORE POP POP JUMP JUMPDEST PUSH0 PUSH1 0x20 DUP3 ADD SWAP1 POP PUSH2 0x7EA PUSH0 DUP4 ADD DUP5 PUSH2 0x7C8 JUMP JUMPDEST SWAP3 SWAP2 POP POP JUMP JUMPDEST PUSH0 DUP1 PUSH1 0x40 DUP4 DUP6 SUB SLT ISZERO PUSH2 0x806 JUMPI PUSH2 0x805 PUSH2 0x733 JUMP JUMPDEST JUMPDEST PUSH0 PUSH2 0x813 DUP6 DUP3 DUP7 ADD PUSH2 0x756 JUMP JUMPDEST SWAP3 POP POP PUSH1 0x20 PUSH2 0x824 DUP6 DUP3 DUP7 ADD PUSH2 0x756 JUMP JUMPDEST SWAP2 POP POP SWAP3 POP SWAP3 SWAP1 POP JUMP JUMPDEST PUSH0 PUSH20 0xFFFFFFFFFFFFFFFFFFFFFFFFFFFFFFFFFFFFFFFF DUP3 AND SWAP1 POP SWAP2 SWAP1 POP JUMP JUMPDEST PUSH0 PUSH2 0x857 DUP3 PUSH2 0x82E JUMP JUMPDEST SWAP1 POP SWAP2 SWAP1 POP JUMP JUMPDEST PUSH2 0x867 DUP2 PUSH2 0x84D JUMP JUMPDEST DUP3 MSTORE POP POP JUMP JUMPDEST PUSH0 PUSH1 0x20 DUP3 ADD SWAP1 POP PUSH2 0x880 PUSH0 DUP4 ADD DUP5 PUSH2 0x85E JUMP JUMPDEST SWAP3 SWAP2 POP POP JUMP JUMPDEST PUSH0 DUP1 PUSH0 PUSH1 0x60 DUP5 DUP7 SUB SLT ISZERO PUSH2 0x89D JUMPI PUSH2 0x89C PUSH2 0x733 JUMP JUMPDEST JUMPDEST PUSH0 PUSH2 0x8AA DUP7 DUP3 DUP8 ADD PUSH2 0x756 JUMP JUMPDEST SWAP4 POP POP PUSH1 0x20 PUSH2 0x8BB DUP7 DUP3 DUP8 ADD PUSH2 0x756 JUMP JUMPDEST SWAP3 POP POP PUSH1 0x40 PUSH2 0x8CC DUP7 DUP3 DUP8 ADD PUSH2 0x756 JUMP JUMPDEST SWAP2 POP POP SWAP3 POP SWAP3 POP SWAP3 JUMP JUMPDEST PUSH32 0x4E487B7100000000000000000000000000000000000000000000000000000000 PUSH0 MSTORE PUSH1 0x32 PUSH1 0x4 MSTORE PUSH1 0x24 PUSH0 REVERT JUMPDEST PUSH0 DUP3 DUP3 MSTORE PUSH1 0x20 DUP3 ADD SWAP1 POP SWAP3 SWAP2 POP POP JUMP JUMPDEST PUSH32 0x5468652061756374696F6E2069736E74206163746976652E0000000000000000 PUSH0 DUP3 ADD MSTORE POP JUMP JUMPDEST PUSH0 PUSH2 0x947 PUSH1 0x18 DUP4 PUSH2 0x903 JUMP JUMPDEST SWAP2 POP PUSH2 0x952 DUP3 PUSH2 0x913 JUMP JUMPDEST PUSH1 0x20 DUP3 ADD SWAP1 POP SWAP2 SWAP1 POP JUMP JUMPDEST PUSH0 PUSH1 0x20 DUP3 ADD SWAP1 POP DUP2 DUP2 SUB PUSH0 DUP4 ADD MSTORE PUSH2 0x974 DUP2 PUSH2 0x93B JUMP JUMPDEST SWAP1 POP SWAP2 SWAP1 POP JUMP JUMPDEST PUSH32 0x54696D6520757021000000000000000000000000000000000000000000000000 PUSH0 DUP3 ADD MSTORE POP JUMP JUMPDEST PUSH0 PUSH2 0x9AF PUSH1 0x8 DUP4 PUSH2 0x903 JUMP JUMPDEST SWAP2 POP PUSH2 0x9BA DUP3 PUSH2 0x97B JUMP JUMPDEST PUSH1 0x20 DUP3 ADD SWAP1 POP SWAP2 SWAP1 POP JUMP JUMPDEST PUSH0 PUSH1 0x20 DUP3 ADD SWAP1 POP DUP2 DUP2 SUB PUSH0 DUP4 ADD MSTORE PUSH2 0x9DC DUP2 PUSH2 0x9A3 JUMP JUMPDEST SWAP1 POP SWAP2 SWAP1 POP JUMP JUMPDEST PUSH32 0x416D6F756E7420697320696E76616C6964000000000000000000000000000000 PUSH0 DUP3 ADD MSTORE POP JUMP JUMPDEST PUSH0 PUSH2 0xA17 PUSH1 0x11 DUP4 PUSH2 0x903 JUMP JUMPDEST SWAP2 POP PUSH2 0xA22 DUP3 PUSH2 0x9E3 JUMP JUMPDEST PUSH1 0x20 DUP3 ADD SWAP1 POP SWAP2 SWAP1 POP JUMP JUMPDEST PUSH0 PUSH1 0x20 DUP3 ADD SWAP1 POP DUP2 DUP2 SUB PUSH0 DUP4 ADD MSTORE PUSH2 0xA44 DUP2 PUSH2 0xA0B JUMP JUMPDEST SWAP1 POP SWAP2 SWAP1 POP JUMP JUMPDEST PUSH32 0x4974656D204E756D6265722073686F756C6420626520756E697175652E000000 PUSH0 DUP3 ADD MSTORE POP JUMP JUMPDEST PUSH0 PUSH2 0xA7F PUSH1 0x1D DUP4 PUSH2 0x903 JUMP JUMPDEST SWAP2 POP PUSH2 0xA8A DUP3 PUSH2 0xA4B JUMP JUMPDEST PUSH1 0x20 DUP3 ADD SWAP1 POP SWAP2 SWAP1 POP JUMP JUMPDEST PUSH0 PUSH1 0x20 DUP3 ADD SWAP1 POP DUP2 DUP2 SUB PUSH0 DUP4 ADD MSTORE PUSH2 0xAAC DUP2 PUSH2 0xA73 JUMP JUMPDEST SWAP1 POP SWAP2 SWAP1 POP JUMP JUMPDEST PUSH32 0x5374617274696E67207072696365206F72206475726174696F6E2063616E6E6F PUSH0 DUP3 ADD MSTORE PUSH32 0x6E7420626520302E000000000000000000000000000000000000000000000000 PUSH1 0x20 DUP3 ADD MSTORE POP JUMP JUMPDEST PUSH0 PUSH2 0xB0D PUSH1 0x28 DUP4 PUSH2 0x903 JUMP JUMPDEST SWAP2 POP PUSH2 0xB18 DUP3 PUSH2 0xAB3 JUMP JUMPDEST PUSH1 0x40 DUP3 ADD SWAP1 POP SWAP2 SWAP1 POP JUMP JUMPDEST PUSH0 PUSH1 0x20 DUP3 ADD SWAP1 POP DUP2 DUP2 SUB PUSH0 DUP4 ADD MSTORE PUSH2 0xB3A DUP2 PUSH2 0xB01 JUMP JUMPDEST SWAP1 POP SWAP2 SWAP1 POP JUMP JUMPDEST PUSH32 0x4E487B7100000000000000000000000000000000000000000000000000000000 PUSH0 MSTORE PUSH1 0x11 PUSH1 0x4 MSTORE PUSH1 0x24 PUSH0 REVERT JUMPDEST PUSH0 PUSH2 0xB78 DUP3 PUSH2 0x737 JUMP JUMPDEST SWAP2 POP PUSH32 0xFFFFFFFFFFFFFFFFFFFFFFFFFFFFFFFFFFFFFFFFFFFFFFFFFFFFFFFFFFFFFFFF DUP3 SUB PUSH2 0xBAA JUMPI PUSH2 0xBA9 PUSH2 0xB41 JUMP JUMPDEST JUMPDEST PUSH1 0x1 DUP3 ADD SWAP1 POP SWAP2 SWAP1 POP JUMP INVALID LOG2 PUSH5 0x6970667358 0x22 SLT KECCAK256 PUSH22 0x11F25B38D7D54623DFF0A7EA3E4D857D86352BF4AC51 DUP2 PUSH1 0xFC 0xE3 0xC6 0xA9 0x1F PUSH14 0x9C64736F6C634300081900330000 "
				},
				"gasEstimates": {
					"creation": {
						"codeDepositCost": "610200",
						"executionCost": "643",
						"totalCost": "610843"
					},
					"external": {
						"bid(uint256,uint256)": "infinite",
						"cancelAuction(uint256)": "44232",
						"checkActiveBidPrice(uint256)": "infinite",
						"checkAuctionActive(uint256)": "31588",
						"checkHighestBidder(uint256)": "33880",
						"conditions(uint256,uint256,uint256)": "infinite",
						"createAuction(uint256,uint256,uint256)": "infinite",
						"timeLeft(uint256)": "infinite"
					},
					"internal": {
						"IndexByItemNumber(uint256)": "66",
						"checkMax(uint256)": "6586"
					}
				},
				"methodIdentifiers": {
					"bid(uint256,uint256)": "598647f8",
					"cancelAuction(uint256)": "96b5a755",
					"checkActiveBidPrice(uint256)": "ca7948db",
					"checkAuctionActive(uint256)": "083ceba1",
					"checkHighestBidder(uint256)": "71babc66",
					"conditions(uint256,uint256,uint256)": "9f469cc7",
					"createAuction(uint256,uint256,uint256)": "cda4beef",
					"timeLeft(uint256)": "47cb7a68"
				}
			},
			"storageLayout": {
				"storage": [
					{
						"astId": 14,
						"contract": "contracts/Auction.sol:Auction",
						"label": "Items",
						"offset": 0,
						"slot": "0",
						"type": "t_array(t_struct(AuctionItem)10_storage)dyn_storage"
					},
					{
						"astId": 34,
						"contract": "contracts/Auction.sol:Auction",
						"label": "mappings",
						"offset": 0,
						"slot": "1",
						"type": "t_struct(Mappings)31_storage"
					}
				],
				"types": {
					"t_address": {
						"encoding": "inplace",
						"label": "address",
						"numberOfBytes": "20"
					},
					"t_array(t_struct(AuctionItem)10_storage)dyn_storage": {
						"base": "t_struct(AuctionItem)10_storage",
						"encoding": "dynamic_array",
						"label": "struct Auction.AuctionItem[]",
						"numberOfBytes": "32"
					},
					"t_bool": {
						"encoding": "inplace",
						"label": "bool",
						"numberOfBytes": "1"
					},
					"t_mapping(t_uint256,t_address)": {
						"encoding": "mapping",
						"key": "t_uint256",
						"label": "mapping(uint256 => address)",
						"numberOfBytes": "32",
						"value": "t_address"
					},
					"t_mapping(t_uint256,t_bool)": {
						"encoding": "mapping",
						"key": "t_uint256",
						"label": "mapping(uint256 => bool)",
						"numberOfBytes": "32",
						"value": "t_bool"
					},
					"t_mapping(t_uint256,t_uint256)": {
						"encoding": "mapping",
						"key": "t_uint256",
						"label": "mapping(uint256 => uint256)",
						"numberOfBytes": "32",
						"value": "t_uint256"
					},
					"t_struct(AuctionItem)10_storage": {
						"encoding": "inplace",
						"label": "struct Auction.AuctionItem",
						"members": [
							{
								"astId": 3,
								"contract": "contracts/Auction.sol:Auction",
								"label": "ItemNumber",
								"offset": 0,
								"slot": "0",
								"type": "t_uint256"
							},
							{
								"astId": 5,
								"contract": "contracts/Auction.sol:Auction",
								"label": "StartingPrice",
								"offset": 0,
								"slot": "1",
								"type": "t_uint256"
							},
							{
								"astId": 7,
								"contract": "contracts/Auction.sol:Auction",
								"label": "Duration",
								"offset": 0,
								"slot": "2",
								"type": "t_uint256"
							},
							{
								"astId": 9,
								"contract": "contracts/Auction.sol:Auction",
								"label": "whetherActive",
								"offset": 0,
								"slot": "3",
								"type": "t_bool"
							}
						],
						"numberOfBytes": "128"
					},
					"t_struct(Mappings)31_storage": {
						"encoding": "inplace",
						"label": "struct Auction.Mappings",
						"members": [
							{
								"astId": 18,
								"contract": "contracts/Auction.sol:Auction",
								"label": "itemNumberToStartingPrice",
								"offset": 0,
								"slot": "0",
								"type": "t_mapping(t_uint256,t_uint256)"
							},
							{
								"astId": 22,
								"contract": "contracts/Auction.sol:Auction",
								"label": "itemNumberToWhetherActive",
								"offset": 0,
								"slot": "1",
								"type": "t_mapping(t_uint256,t_bool)"
							},
							{
								"astId": 26,
								"contract": "contracts/Auction.sol:Auction",
								"label": "maxbidToAddress",
								"offset": 0,
								"slot": "2",
								"type": "t_mapping(t_uint256,t_address)"
							},
							{
								"astId": 30,
								"contract": "contracts/Auction.sol:Auction",
								"label": "itemNumberToDuration",
								"offset": 0,
								"slot": "3",
								"type": "t_mapping(t_uint256,t_uint256)"
							}
						],
						"numberOfBytes": "128"
					},
					"t_uint256": {
						"encoding": "inplace",
						"label": "uint256",
						"numberOfBytes": "32"
					}
				}
			},
			"userdoc": {
				"kind": "user",
				"methods": {},
				"version": 1
			}
		}
	}
}